:100000000C942A000C9434000C9434000C943400AA
:100010000C9434000C9434000C9434000C94340090
:100020000C9434000C9434000C9434000C94340080
:100030000C9434000C9434000C9434000C94340070
:100040000C9434000C9434000C9434000C94340060
:100050000C94340011241FBECFE5D8E0DEBFCDBF25
:100060000E9436000C94A7010C940000DF93CF93FC
:10007000CDB7DEB72D970FB6F894DEBF0FBECDBF5C
:10008000EAE3F0E08FEF8083E7E3F0E01082E4E35F
:10009000F0E01082E1E3F0E08FEF8083EBE3F0E04B
:1000A0001082E2E3F0E010821D861C861B861A8611
:1000B000198618861F821E82E6E3F0E08081817037
:1000C0008D83E6E3F0E0808182708C83E6E3F0E0EC
:1000D000808181708B83E3E3F0E0808181708A838B
:1000E000E3E3F0E08081827089838C859D850097B1
:1000F00009F083C0ABE3B0E0EBE3F0E080818A7FFE
:100100008C93ABE3B0E0EBE3F0E080818A608C930A
:100110001BC0A2E3B0E0E2E3F0E0808180638C9357
:10012000E6E3F0E0808181708D83E6E3F0E080819A
:1001300082708C83E6E3F0E0808181708B83E3E35F
:10014000F0E0808181708A838C81823011F322C03B
:10015000A2E3B0E0E2E3F0E080818F7E8C93A2E343
:10016000B0E0E2E3F0E0808180628C93E6E3F0E0CF
:10017000808181708D83E6E3F0E0808182708C83E2
:10018000E6E3F0E0808181708B83E3E3F0E080813F
:1001900081708A838D818130D9F222C0A2E3B0E0E0
:1001A000E2E3F0E080818F7D8C93A2E3B0E0E2E3B4
:1001B000F0E0808180618C93E6E3F0E080818170E3
:1001C0008D83E6E3F0E0808182708C83E6E3F0E0EB
:1001D000808181708B83E3E3F0E0808181708A838A
:1001E0008B818430D9F28A81813039F481E090E0CA
:1001F0009D878C87EBE3F0E010828C859D858130B4
:10020000910509F059CF8A859B85009721F481E0FB
:1002100090E09B878A878A859B858130910541F490
:1002200088859985009721F481E090E099878887F7
:10023000888599858130910509F03ECFABE3B0E028
:10024000EBE3F0E08081857F8C93ABE3B0E0EBE300
:10025000F0E0808185608C931BC0A2E3B0E0E2E314
:10026000F0E0808180638C93E6E3F0E08081817030
:100270008D83E6E3F0E0808182708C83E6E3F0E03A
:10028000808181708B83E3E3F0E0808182708983D9
:100290008C81823011F322C0A2E3B0E0E2E3F0E00F
:1002A00080818F7E8C93A2E3B0E0E2E3F0E0808176
:1002B00080628C93E6E3F0E0808181708D83E6E3D9
:1002C000F0E0808182708C83E6E3F0E080818170D1
:1002D0008B83E3E3F0E08081827089838D818130BC
:1002E000D9F222C0A2E3B0E0E2E3F0E080818F7DAA
:1002F0008C93A2E3B0E0E2E3F0E0808180618C9334
:10030000E6E3F0E0808181708D83E6E3F0E08081B8
:1003100082708C83E6E3F0E0808181708B83E3E37D
:10032000F0E08081827089838B818430D9F2898169
:10033000823009F0C1CE82E090E09D878C87EBE3AC
:10034000F0E0108281E090E09F838E83B5CEF89438
:02035000FFCFDD
:00000001FF
