:100000000C942A000C9434000C9434000C943400AA
:100010000C9434000C9434000C9434000C94340090
:100020000C9434000C9434000C9434000C94340080
:100030000C9434000C9434000C9434000C94340070
:100040000C9434000C9434000C9434000C94340060
:100050000C94340011241FBECFE5D8E0DEBFCDBF25
:100060000E9436000C94F8010C940000DF93CF93AB
:10007000CDB7DEB760970FB6F894DEBF0FBECDBF29
:10008000E1E3F0E08FEF8083E4E3F0E08FEF808343
:10009000E5E3F0E01082E5E4F0E081E6808381E0D2
:1000A000888B1F8680E090E0A8E4B2E48B879C8771
:1000B000AD87BE876B857C858D859E8520E030E091
:1000C0004AEF54E40E946D01DC01CB018F839887D5
:1000D000A987BA876F81788589859A8520E030E085
:1000E00040E85FE30E94EC0088232CF481E090E07C
:1000F0009E838D833FC06F81788589859A8520E0B6
:100100003FEF4FE757E40E94690118164CF56B85E5
:100110007C858D859E8520E030E040E251E40E94A0
:100120006D01DC01CB01BC01CD010E94F000DC01BE
:10013000CB019E838D830FC088EC90E09C838B83E2
:100140008B819C810197F1F79C838B838D819E81AC
:1001500001979E838D838D819E81009769F714C0DE
:100160006F81788589859A850E94F000DC01CB013A
:100170009E838D838D819E819A83898389819A81D3
:100180000197F1F79A8389838F85882361F48889A1
:100190008F5F888BE3E4F0E08889808388898E3FD5
:1001A00011F481E08F878F85813009F07BCF8889BA
:1001B0008150888BE3E4F0E08889808388898130EE
:1001C00009F070CF1F86A5E3B0E0E5E3F0E0908191
:1001D00084E089278C9366CF2FD008F481E00895BE
:1001E00057D088F09F5790F0B92F9927B751A0F0BA
:1001F000D1F0660F771F881F991F1AF0BA95C9F7BB
:1002000012C0B13081F05ED0B1E008955BC0672FBD
:10021000782F8827B85F39F0B93FCCF3869577956A
:100220006795B395D9F73EF4909580957095619553
:100230007F4F8F4F9F4F0895990F0008550FAA0BBE
:10024000E0E8FEEF16161706E807F907C0F01216E9
:100250001306E407F50798F0621B730B840B950BEC
:1002600039F40A2661F0232B242B252B21F4089541
:100270000A2609F4A140A6958FEF811D811D0895DE
:1002800057FD9058440F551F59F05F3F71F0479547
:10029000880F97FB991F61F09F3F79F0879508952C
:1002A000121613061406551FF2CF4695F1DF08C04B
:1002B000161617061806991FF1CF86957105610568
:1002C00008940895E894BB2766277727CB0197F910
:1002D0000895B2DF08F48FEF08950BD078C069D08D
:1002E00028F06ED018F0952309F05AC05FC0112491
:1002F000EACFC6DFA0F3959FD1F3950F50E0551FCD
:10030000629FF001729FBB27F00DB11D639FAA276A
:10031000F00DB11DAA1F649F6627B00DA11D661FB9
:10032000829F2227B00DA11D621F739FB00DA11DDA
:10033000621F839FA00D611D221F749F3327A00D94
:10034000611D231F849F600D211D822F762F6A2F30
:1003500011249F5750408AF0E1F088234AF0EE0FB5
:10036000FF1FBB1F661F771F881F91505040A9F7C2
:100370009E3F510570F014C0A6CF5F3FECF3983E4E
:10038000DCF3869577956795B795F795E7959F5F29
:10039000C1F7FE2B880F911D9695879597F90895C3
:1003A00097F99F6780E870E060E008959FEF80EC28
:1003B000089500240A9416161706180609060895CB
:1003C00000240A9412161306140605060895092E31
:1003D0000394000C11F4882352F0BB0F40F4BF2BA0
:1003E00011F460FF04C06F5F7F4F8F4F9F4F0895E0
:0403F000F894FFCFAF
:00000001FF
