:100000000C9472000C9489000C9489000C94890063
:100010000C9489000C9489000C9489000C9489003C
:100020000C9489000C9489000C9489000C9489002C
:100030000C9489000C9489000C9489000C9489001C
:100040000C9489000C9489000C9489000C9489000C
:100050000C9489000C9489000C9489000C948900FC
:100060000C9489000C9489000C9489000C948900EC
:100070000C9489000C9489000C9489000C948900DC
:100080000C9489000C9489000C9489000C948900CC
:100090000C9489000C9489000C9489000C948900BC
:1000A0000C9489000C9489000C9489000C948900AC
:1000B0000C9489000C9489000C9489000C9489009C
:1000C0000C9489000C9489000C9489000C9489008C
:1000D0000C9489000C9489000C9489000C9489007C
:1000E0000C94890011241FBECFEFD1E2DEBFCDBF3B
:1000F00012E0A0E0B2E0EAEEF6E000E00BBF02C0E2
:1001000007900D92A030B107D9F70E948B000C9494
:1001100073030C940000DF93CF93CDB7DEB7A397A2
:100120000FB6F894DEBF0FBECDBFEAE0F1E010825B
:10013000E4E2F0E08FEF8083E0E8F0E081E88083A4
:10014000E1E8F0E081E08083E2E8F0E01082E0EBBB
:10015000F0E081E88083E1EBF0E081E08083E7E29A
:10016000F0E08FEF808382E090E0988F8F8B1E8A83
:100170001D8A1C8A1B8A80E090E0A0E2B1E48B8794
:100180009C87AD87BE876B857C858D859E8520E0AD
:1001900030E04AEF54E40E94E802DC01CB018F8397
:1001A0009887A987BA876F81788589859A8520E0A5
:1001B00030E040E85FE30E94670288232CF481E08E
:1001C00090E09E838D833FC06F81788589859A8575
:1001D00020E03FEF4FE757E40E94E40218164CF589
:1001E0006B857C858D859E8520E030E040E251E482
:1001F0000E94E802DC01CB01BC01CD010E946B0230
:10020000DC01CB019E838D830FC088EC90E09C8342
:100210008B838B819C810197F1F79C838B838D81EC
:100220009E8101979E838D838D819E81009769F7C2
:1002300014C06F81788589859A850E946B02DC01E4
:10024000CB019E838D838D819E819A838983898151
:100250009A810197F1F79A838983E9E0F1E080813F
:100260008F7789A389A1282F30E03BA32AA34AA135
:100270005BA14C30510509F473C06AA17BA16D30BC
:10028000710554F58AA19BA18330910509F456C0EC
:100290002AA13BA1243031056CF44AA15BA1413075
:1002A000510509F441C06AA17BA16230710509F4CE
:1002B00040C076C08AA19BA18630910509F448C050
:1002C0002AA13BA12830310509F447C04AA15BA10E
:1002D00044305105C1F164C06AA17BA1603271054F
:1002E00009F44BC08AA19BA1813291055CF42AA13B
:1002F0003BA120313105B9F14AA15BA1483151053B
:10030000B9F14EC06AA17BA16034710509F43FC008
:100310008AA19BA18036910509F43EC02AA13BA188
:100320002033310579F13CC083E090E0988B8F87D2
:1003300037C082E090E0988B8F8732C082E090E0F7
:10034000988B8F872DC081E090E0988B8F8728C095
:1003500081E090E0988B8F8723C0188A1F8620C089
:10036000188A1F861DC08FEF9FEF988B8F8718C04C
:100370008FEF9FEF988B8F8713C08EEF9FEF988B37
:100380008F870EC08EEF9FEF988B8F8709C08DEF00
:100390009FEF988B8F8704C08DEF9FEF988B8F878F
:1003A0008F8598899E8F8D8F8D8D9E8D98A38F8F31
:1003B0002B8D3C8D8F8D98A1820F931F9C8F8B8FDF
:1003C0002F8D38A1898D9A8DA901481B590BCA011F
:1003D0009E8F8D8F8F8D98A19A8F898F2F89388DC1
:1003E0008F8D98A1289FA001299F500D389F500DF7
:1003F00011242D893E898B8D9C8DBC01269FC001C7
:10040000279F900D369F900D1124480F591F2B895F
:100410003C898D8D9E8DBC01269FC001279F900D2C
:10042000369F900D1124840F951F9A8B898BE8E2DB
:10043000F0E085E0808389899A898B30910524F0EA
:100440008AE090E09A8B898B89899A897FEF863F31
:10045000970724F486EF9FEF9A8B898B89899A8975
:10046000181619069CF489899A89909581959F4F51
:100470009A8B898BE8E8F0E089898083E9E8F0E0ED
:100480001082E3EBF0E089898A50808389899A8918
:10049000992364F4E3EBF0E089898083E9E8F0E0F4
:1004A0001082E8E8F0E089898A50808389899A89F6
:1004B000009709F060CEE8E8F0E084E68083E9E8A0
:1004C000F0E01082E7E4F0E084E6808354CE2FD0A1
:1004D00008F481E0089557D088F09F5790F0B92F25
:1004E0009927B751A0F0D1F0660F771F881F991F89
:1004F0001AF0BA95C9F712C0B13081F05ED0B1E000
:1005000008955BC0672F782F8827B85F39F0B93F0F
:10051000CCF3869577956795B395D9F73EF490958A
:100520008095709561957F4F8F4F9F4F0895990FDC
:100530000008550FAA0BE0E8FEEF16161706E807AD
:10054000F907C0F012161306E407F50798F0621BCE
:10055000730B840B950B39F40A2661F0232B242BA3
:10056000252B21F408950A2609F4A140A6958FEFC2
:10057000811D811D089557FD9058440F551F59F056
:100580005F3F71F04795880F97FB991F61F09F3F80
:1005900079F087950895121613061406551FF2CFA9
:1005A0004695F1DF08C0161617061806991FF1CFF9
:1005B00086957105610508940895E894BB27662720
:1005C0007727CB0197F90895B2DF08F48FEF0895EC
:1005D0000BD078C069D028F06ED018F0952309F0C0
:1005E0005AC05FC01124EACFC6DFA0F3959FD1F3B4
:1005F000950F50E0551F629FF001729FBB27F00DD1
:10060000B11D639FAA27F00DB11DAA1F649F662725
:10061000B00DA11D661F829F2227B00DA11D621F74
:10062000739FB00DA11D621F839FA00D611D221F2E
:10063000749F3327A00D611D231F849F600D211D12
:10064000822F762F6A2F11249F5750408AF0E1F0B5
:1006500088234AF0EE0FFF1FBB1F661F771F881FFE
:1006600091505040A9F79E3F510570F014C0A6CF9D
:100670005F3FECF3983EDCF3869577956795B795E9
:10068000F795E7959F5FC1F7FE2B880F911D969513
:10069000879597F9089597F99F6780E870E060E083
:1006A00008959FEF80EC089500240A94161617060B
:1006B00018060906089500240A9412161306140653
:1006C00005060895092E0394000C11F4882352F0B6
:1006D000BB0F40F4BF2B11F460FF04C06F5F7F4F6E
:0A06E0008F4F9F4F0895F894FFCF4D
:00000001FF
