:100000000C9472000C9489000C9489000C94890063
:100010000C9489000C9489000C9489000C9489003C
:100020000C9489000C9489000C9489000C9489002C
:100030000C9489000C9489000C9489000C9489001C
:100040000C9489000C9489000C9489000C9489000C
:100050000C9489000C9489000C9489000C948900FC
:100060000C9489000C9489000C9489000C948900EC
:100070000C9489000C9489000C9489000C948900DC
:100080000C9489000C9489000C9489000C948900CC
:100090000C9489000C9489000C9489000C948900BC
:1000A0000C9489000C9489000C9489000C948900AC
:1000B0000C9489000C9489000C9489000C9489009C
:1000C0000C9489000C9489000C9489000C9489008C
:1000D0000C9489000C9489000C9489000C9489007C
:1000E0000C94890011241FBECFEFD1E2DEBFCDBF3B
:1000F00012E0A0E0B2E0ECEDF8E000E00BBF02C0DF
:1001000007900D92A030B107D9F70E948B000C9494
:100110006C040C940000DF93CF93CDB7DEB7A797A4
:100120000FB6F894DEBF0FBECDBFEAE0F1E010825B
:10013000E4E2F0E08FEF8083E0E8F0E081E88083A4
:10014000E1E8F0E081E08083E2E8F0E01082E0EBBB
:10015000F0E081E88083E1EBF0E081E08083E7E29A
:10016000F0E08FEF808388E790E09DA38CA38FE081
:1001700090E0988F8F8B8AE090E09E8B8D8B1C8A0D
:100180001B8A80E090E0A0E8BFE38B879C87AD8767
:10019000BE876B857C858D859E8520E030E04AEFAB
:1001A00054E40E94BA03DC01CB018F839887A987AE
:1001B000BA876F81788589859A8520E030E040E8AC
:1001C0005FE30E94390388232CF481E090E09E8352
:1001D0008D833FC06F81788589859A8520E03FEFC8
:1001E0004FE757E40E94B60318164CF56B857C85E3
:1001F0008D859E8520E030E040E251E40E94BA0304
:10020000DC01CB01BC01CD010E943D03DC01CB012F
:100210009E838D830FC088EC90E09C838B838B81C1
:100220009C810197F1F79C838B838D819E8101973F
:100230009E838D838D819E81009769F714C06F81A5
:10024000788589859A850E943D03DC01CB019E83D8
:100250008D838D819E819A83898389819A8101977B
:10026000F1F79A838983E9E0F1E080818F778BA3AE
:100270008BA1282F30E03FA32EA34EA15FA14831D0
:10028000510509F4E6C06EA17FA1693171050CF03A
:1002900055C08EA19FA18730910509F4C3C02EA13E
:1002A0003FA1283031052CF54EA15FA14330510507
:1002B00009F4A9C06EA17FA1643071056CF48EA110
:1002C0009FA18130910509F494C02EA13FA1223055
:1002D000310509F493C000C14EA15FA1443051051E
:1002E00009F496C06EA17FA16630710509F495C02E
:1002F000F3C08EA19FA18E30910509F4A0C02EA15C
:100300003FA12F3031056CF44EA15FA1483051055B
:1003100009F48DC06EA17FA16C30710509F48AC00B
:10032000DBC08EA19FA18F30910509F4B8C02EA12A
:100330003FA12031310509F487C0CEC04EA15FA195
:100340004F33510509F4B5C06EA17FA1603471052A
:100350002CF58EA19FA18032910509F482C02EA1B7
:100360003FA1213231056CF44EA15FA14C31510502
:1003700009F474C06EA17FA16F31710509F494C0B6
:10038000ABC08EA19FA18033910509F46FC02EA14F
:100390003FA12833310509F46EC09EC04EA15FA174
:1003A0004037510509F476C06EA17FA16137710510
:1003B0006CF48EA19FA18034910509F461C02EA137
:1003C0003FA12036310509F460C086C04EA15FA16F
:1003D0004C37510509F477C06EA17FA16E377105C6
:1003E00009F476C08EA19FA18837910509F466C0F3
:1003F00073C08CE090E0988B8F876EC088E090E0AF
:10040000988B8F8769C08AE090E0988B8F8764C053
:1004100083E090E0988B8F875FC086E090E0988BB8
:100420008F875AC089E090E0988B8F8755C0188AD3
:100430001F8652C081E090E0988B8F874DC082E08C
:1004400090E0988B8F8748C08DEF9FEF988B8F87B8
:1004500043C08FEF9FEF988B8F873EC0188A1F860F
:100460003BC088EF9FEF988B8F8736C08AEF9FEF56
:10047000988B8F8731C08EEF9FEF988B8F872CC022
:1004800084EF9FEF988B8F8727C086EF9FEF988B25
:100490008F8722C087EF9FEF988B8F871DC08FE0DB
:1004A00090E0988B8F8718C08FE090E0988B8F87B3
:1004B00013C08FE090E0988B8F870EC081EF9FEF85
:1004C000988B8F8709C081EF9FEF988B8F8704C02F
:1004D00081EF9FEF988B8F878F8598899AA389A347
:1004E0002D8D3E8D89A19AA1820F931F9E8F8D8F96
:1004F00029A13AA18B8D9C8DA901481B590BCA01DA
:1005000098A38F8F89A19AA19C8F8B8F2F89388D6B
:1005100089A19AA1289FF001299FF00D389FF00D25
:1005200011248D8D9E8D28EE33E0B9010E94450483
:10053000CB019C018D899E89BC01269FC001279F0C
:10054000900D369F900D1124AF01480F591F2B8934
:100550003C898F8D98A1BC01269FC001279F900DDB
:10056000369F900D1124840F951F9A8B898BE8E29A
:10057000F0E085E0808329893A898CA19DA18217CA
:1005800093072CF48CA19DA101979A8B898B8CA148
:100590009DA122273327281B390B89899A89821725
:1005A000930744F481E090E02CA13DA1821B930BC2
:1005B0009A8B898B89899A8918161906FCF48CA163
:1005C0009DA129893A89820F931F8B3F91052CF0B9
:1005D000E3EBF0E08CA1808306C0E3EBF0E09CA1AC
:1005E0008989890F8083E9E8F0E01082E8E8F0E08B
:1005F0009CA18989792F781B872F808389899A8983
:10060000992334F589899A89909581959F4F9A8B82
:10061000898B2CA13DA189899A89820F931F8B3FD9
:1006200091052CF0E8E8F0E08CA1808306C0E8E8B2
:10063000F0E09CA18989890F8083E9E8F0E01082CD
:10064000E3EBF0E09CA18989292F281B822F80836E
:1006500089899A89009709F094CDE8E8F0E08CA1A7
:100660008083E9E8F0E01082E3EBF0E08CA1808386
:1006700088CD2FD008F481E0089557D088F09F5797
:1006800090F0B92F9927B751A0F0D1F0660F771FDE
:10069000881F991F1AF0BA95C9F712C0B13081F0BE
:1006A0005ED0B1E008955BC0672F782F8827B85FD0
:1006B00039F0B93FCCF3869577956795B395D9F71F
:1006C0003EF490958095709561957F4F8F4F9F4F29
:1006D0000895990F0008550FAA0BE0E8FEEF1616D3
:1006E0001706E807F907C0F012161306E407F50726
:1006F00098F0621B730B840B950B39F40A2661F09A
:10070000232B242B252B21F408950A2609F4A1403C
:10071000A6958FEF811D811D089557FD9058440FB8
:10072000551F59F05F3F71F04795880F97FB991F50
:1007300061F09F3F79F0879508951216130614060D
:10074000551FF2CF4695F1DF08C01616170618069A
:10075000991FF1CF86957105610508940895E89475
:10076000BB2766277727CB0197F90895B2DF08F4F6
:100770008FEF08950BD078C069D028F06ED018F0B4
:10078000952309F05AC05FC01124EACFC6DFA0F359
:10079000959FD1F3950F50E0551F629FF001729F16
:1007A000BB27F00DB11D639FAA27F00DB11DAA1F35
:1007B000649F6627B00DA11D661F829F2227B00D82
:1007C000A11D621F739FB00DA11D621F839FA00D0D
:1007D000611D221F749F3327A00D611D231F849F5D
:1007E000600D211D822F762F6A2F11249F575040B4
:1007F0008AF0E1F088234AF0EE0FFF1FBB1F661F4F
:10080000771F881F91505040A9F79E3F510570F007
:1008100014C0A6CF5F3FECF3983EDCF38695779546
:100820006795B795F795E7959F5FC1F7FE2B880F02
:10083000911D9695879597F9089597F99F6780E898
:1008400070E060E008959FEF80EC089500240A9422
:100850001616170618060906089500240A9412169B
:100860001306140605060895092E0394000C11F4CE
:10087000882352F0BB0F40F4BF2B11F460FF04C07B
:100880006F5F7F4F8F4F9F4F089597FB092E07266D
:100890000AD077FD04D00CD006D000201AF4709551
:1008A00061957F4F0895F6F7909581959F4F089534
:1008B000AA1BBB1B51E107C0AA1FBB1FA617B70786
:1008C00010F0A61BB70B881F991F5A95A9F78095A2
:0C08D0009095BC01CD010895F894FFCF75
:00000001FF
