:100000000C942A000C943C000C943C000C943C0092
:100010000C943C000C943C000C943C000C943C0070
:100020000C943C000C943C000C943C000C943C0060
:100030000C943C000C943C000C943C000C943C0050
:100040000C943C000C943C000C943C000C943C0040
:100050000C943C0011241FBECFE5D8E0DEBFCDBF1D
:1000600010E0A0E6B0E001C01D92AB36B107E1F7A9
:100070000E943E000C9464390C9400000F931F936F
:10008000DF93CF93CDB7DEB7C857D0400FB6F89403
:10009000DEBF0FBECDBFE4E3F0E08DEF8083EAE288
:1000A000F0E088E08083E0E4F0E086E88083E9E245
:1000B000F0E08FEC80830E94B41FFE01EB58FF4FED
:1000C00080E090E0A0E2B1E480839183A283B383D7
:1000D0008E010F581F4FFE01EB58FF4F6081718159
:1000E000828193812BEA3AEA4AEA50E40E9401397C
:1000F000DC01CB01F80180839183A283B383FE01ED
:10010000EF58FF4F608171818281938120E030E060
:1001100040E85FE30E94F037882334F4FE01E059A1
:10012000FF4F81E08083E0C0FE01EF58FF4F608108
:1001300071818281938120E030E04FE753E40E9497
:10014000FD3818160CF0C0C0FE01EB58FF4F60815F
:1001500071818281938120E030E04AE754E40E947B
:10016000F437DC01CB01FE01E459FF4F808391831A
:10017000A283B3838E0108591F4FFE01E459FF4F3C
:10018000608171818281938120E030E04AE755E40B
:100190000E940139DC01CB01F80180839183A283A5
:1001A000B383FE01E859FF4F6081718182819381A1
:1001B00020E030E040E85FE30E94F037882344F419
:1001C000FE01EA59FF4F81E090E09183808364C093
:1001D000FE01E859FF4F608171818281938120E0A7
:1001E0003FEF4FE757E40E94FD3818160CF043C06C
:1001F000FE01E459FF4F608171818281938120E08B
:1002000030E040E251E40E940139DC01CB018E0173
:100210000A591F4FBC01CD010E945C38DC01CB01A3
:10022000F801918380831FC0FE01EC59FF4F80E9E4
:1002300091E091838083FE01EC59FF4F8081918191
:100240000197F1F7FE01EC59FF4F91838083DE01A6
:10025000AA59BF4FFE01EA59FF4F80819181019752
:1002600011969C938E93FE01EA59FF4F80819181F4
:100270000097D1F64BC08E010A591F4FFE01E85975
:10028000FF4F60817181828193810E945C38DC0123
:10029000CB01F80191838083DE01AE59BF4FFE018F
:1002A000EA59FF4F8081918111969C938E93FE01B4
:1002B000EE59FF4F808191810197F1F7FE01EE59D0
:1002C000FF4F9183808322C08E0100591F4FFE0192
:1002D000EF58FF4F60817181828193810E945C3869
:1002E000DC01CB01F8018083DE01AF59BF4FFE0175
:1002F000E059FF4F80818C93FE01EF59FF4F8081C1
:100300008A95F1F7FE01EF59FF4F8083EBE2F0E0B1
:100310008081882F90E0807290700097B9F3ECE2B2
:10032000F0E081E08083FE01E35AFF4F80E090E03F
:10033000A0E8BFE380839183A283B3838E01075A31
:100340001F4FFE01E35AFF4F6081718182819381CB
:100350002BEA3AEA4AEA50E40E940139DC01CB0177
:10036000F80180839183A283B383FE01E75AFF4F94
:10037000608171818281938120E030E040E85FE319
:100380000E94F037882334F4FE01E85AFF4F81E0E1
:100390008083E0C0FE01E75AFF4F60817181828156
:1003A000938120E030E04FE753E40E94FD381816B7
:1003B0000CF0C0C0FE01E35AFF4F60817181828161
:1003C000938120E030E04AE754E40E94F437DC01F6
:1003D000CB01FE01EC5AFF4F80839183A283B3834C
:1003E0008E01005B1F4FFE01EC5AFF4F608171814F
:1003F0008281938120E030E04AE755E40E94013990
:10040000DC01CB01F80180839183A283B383FE01D9
:10041000E05BFF4F608171818281938120E030E059
:1004200040E85FE30E94F037882344F4FE01E25B7A
:10043000FF4F81E090E09183808364C0FE01E05B28
:10044000FF4F608171818281938120E03FEF4FE710
:1004500057E40E94FD3818160CF043C0FE01EC5A18
:10046000FF4F608171818281938120E030E040E222
:1004700051E40E940139DC01CB018E01025B1F4F68
:10048000BC01CD010E945C38DC01CB01F8019183F5
:1004900080831FC0FE01E45BFF4F80E991E0918300
:1004A0008083FE01E45BFF4F808191810197F1F72A
:1004B000FE01E45BFF4F91838083DE01A25BBF4FAF
:1004C000FE01E25BFF4F80819181019711969C9321
:1004D0008E93FE01E25BFF4F808191810097D1F600
:1004E0004BC08E01025B1F4FFE01E05BFF4F60813E
:1004F0007181828193810E945C38DC01CB01F8011B
:1005000091838083DE01A65BBF4FFE01E25BFF4F5C
:100510008081918111969C938E93FE01E65BFF4F43
:10052000808191810197F1F7FE01E65BFF4F918396
:10053000808322C08E01085A1F4FFE01E75AFF4FE9
:1005400060817181828193810E945C38DC01CB01E2
:10055000F8018083DE01A75BBF4FFE01E85AFF4F21
:1005600080818C93FE01E75BFF4F80818A95F1F7D4
:10057000FE01E75BFF4F8083EBE2F0E08081882F94
:1005800090E0807290700097B9F3ECE2F0E0809117
:1005900068008083FE01EB5BFF4F80E090E0A0E805
:1005A000BFE380839183A283B3838E010F5B1F4FD0
:1005B000FE01EB5BFF4F60817181828193812BEAA9
:1005C0003AEA4AEA50E40E940139DC01CB01F80121
:1005D00080839183A283B383FE01EF5BFF4F608131
:1005E00071818281938120E030E040E85FE30E94E6
:1005F000F037882334F481E0FE01E05CFF4F808314
:100600009DC0FE01EF5BFF4F60817181828193810C
:1006100020E030E04FE753E40E94FD3818160CF05C
:100620007EC0FE01EB5BFF4F60817181828193810F
:1006300020E030E04AE754E40E94F437DC01CB01CB
:100640008CAF9DAFAEAFBFAF6CAD7DAD8EAD9FAD8E
:1006500020E030E04AE755E40E940139DC01CB019B
:1006600088AF99AFAAAFBBAF68AD79AD8AAD9BAD8E
:1006700020E030E040E85FE30E94F03788232CF46C
:1006800081E090E09FAB8EAB3FC068AD79AD8AADA5
:100690009BAD20E03FEF4FE757E40E94FD3818166E
:1006A0004CF56CAD7DAD8EAD9FAD20E030E040E20D
:1006B00051E40E940139DC01CB01BC01CD010E9453
:1006C0005C38DC01CB019FAB8EAB0FC080E991E0C1
:1006D0009DAB8CAB8CA99DA90197F1F79DAB8CAB21
:1006E0008EA99FA901979FAB8EAB8EA99FA900975A
:1006F00069F72DC068AD79AD8AAD9BAD0E945C38BD
:10070000DC01CB019FAB8EAB8EA99FA99BAB8AABC3
:100710008AA99BA90197F1F79BAB8AAB18C0FE0190
:10072000EF5BFF4F60817181828193810E945C3811
:10073000DC01CB01FE01E05CFF4F8083FE01E05C49
:10074000FF4F808189AB89A98A95F1F789ABEBE2EC
:10075000F0E08081882F90E0807290700097B9F36C
:10076000ECE2F0E080916000808380E090E0A0E81F
:10077000BFE38DA79EA7AFA7B8AB6DA57EA58FA53C
:1007800098A92BEA3AEA4AEA50E40E940139DC01CE
:10079000CB0189A79AA7ABA7BCA769A57AA58BA50A
:1007A0009CA520E030E040E85FE30E94F03788231A
:1007B0001CF481E088A791C069A57AA58BA59CA5AA
:1007C00020E030E04FE753E40E94FD3818160CF0AB
:1007D0007BC06DA57EA58FA598A920E030E04AE7F3
:1007E00054E40E94F437DC01CB018CA39DA3AEA39B
:1007F000BFA36CA17DA18EA19FA120E030E04AE7BC
:1008000055E40E940139DC01CB0188A399A3AAA376
:10081000BBA368A179A18AA19BA120E030E040E8B8
:100820005FE30E94F03788232CF481E090E09F8FF3
:100830008E8F3FC068A179A18AA19BA120E03FEFE4
:100840004FE757E40E94FD3818164CF56CA17DA1C6
:100850008EA19FA120E030E040E251E40E940139E6
:10086000DC01CB01BC01CD010E945C38DC01CB0175
:100870009F8F8E8F0FC080E991E09D8F8C8F8C8D24
:100880009D8D0197F1F79D8F8C8F8E8D9F8D019798
:100890009F8F8E8F8E8D9F8D009769F724C068A1E2
:1008A00079A18AA19BA10E945C38DC01CB019F8FBA
:1008B0008E8F8E8D9F8D9B8F8A8F8A8D9B8D0197BA
:1008C000F1F79B8F8A8F0FC069A57AA58BA59CA590
:1008D0000E945C38DC01CB0188A788A5898F898DAF
:1008E0008A95F1F7898FEBE2F0E08081882F90E024
:1008F000807290700097B9F3ECE2F0E080916A00AA
:10090000808380E090E0A0E8BFE38D8B9E8BAF8B6F
:10091000B88F6D897E898F89988D2BEA3AEA4AEAE9
:1009200050E40E940139DC01CB01898B9A8BAB8B9F
:10093000BC8B69897A898B899C8920E030E040E80A
:100940005FE30E94F03788231CF481E0888B91C01C
:1009500069897A898B899C8920E030E04FE753E4EC
:100960000E94FD3818160CF07BC06D897E898F8936
:10097000988D20E030E04AE754E40E94F437DC012F
:10098000CB018C879D87AE87BF876C857D858E85E3
:100990009F8520E030E04AE755E40E940139DC0100
:1009A000CB0188879987AA87BB87688579858A85DF
:1009B0009B8520E030E040E85FE30E94F037882329
:1009C0002CF481E090E09F838E833FC06885798519
:1009D0008A859B8520E03FEF4FE757E40E94FD3872
:1009E00018164CF56C857D858E859F8520E030E05E
:1009F00040E251E40E940139DC01CB01BC01CD0190
:100A00000E945C38DC01CB019F838E830FC080E99C
:100A100091E09D838C838C819D810197F1F79D836B
:100A20008C838E819F8101979F838E838E819F818E
:100A3000009769F740CB688579858A859B850E94F8
:100A40005C38DC01CB019F838E838E819F819B83E9
:100A50008A838A819B810197F1F79B838A832BCBC1
:100A600069897A898B899C890E945C38DC01CB0179
:100A7000888B8889898389818A95F1F789831BCB43
:100A80000F931F93DF93CF93CDB7DEB7C850D140FC
:100A90000FB6F894DEBF0FBECDBFA5E3B0E0E5E32F
:100AA000F0E0808184608C93A5E3B0E0E5E3F0E0C2
:100AB000808181608C93A5E3B0E0E5E3F0E0808184
:100AC0008F7E8C93FE01EB5FFE4F80E090E0A0EF05
:100AD000B1E480839183A283B3838E010F5F1E4FA5
:100AE000FE01EB5FFE4F60817181828193812BEA71
:100AF0003AEA4AEA50E40E940139DC01CB01F801EC
:100B000080839183A283B383FE01EF5FFE4F6081F8
:100B100071818281938120E030E040E85FE30E94B0
:100B2000F037882334F4FE01E050FF4F81E08083EA
:100B3000E0C0FE01EF5FFE4F608171818281938191
:100B400020E030E04FE753E40E94FD3818160CF027
:100B5000C0C0FE01EB5FFE4F608171818281938195
:100B600020E030E04AE754E40E94F437DC01CB0196
:100B7000FE01E450FF4F80839183A283B3838E01F3
:100B800008501F4FFE01E450FF4F60817181828148
:100B9000938120E030E04AE755E40E940139DC010E
:100BA000CB01F80180839183A283B383FE01E850D7
:100BB000FF4F608171818281938120E030E040E8C5
:100BC0005FE30E94F037882344F4FE01EA50FF4FB0
:100BD00081E090E09183808364C0FE01E850FF4F84
:100BE000608171818281938120E03FEF4FE757E47C
:100BF0000E94FD3818160CF043C0FE01E450FF4F70
:100C0000608171818281938120E030E040E251E493
:100C10000E940139DC01CB018E010A501F4FBC013B
:100C2000CD010E945C38DC01CB01F8019183808307
:100C30001FC0FE01EC50FF4F80E991E0918380835B
:100C4000FE01EC50FF4F808191810197F1F7FE0189
:100C5000EC50FF4F91838083DE01AA50BF4FFE010D
:100C6000EA50FF4F80819181019711969C938E935A
:100C7000FE01EA50FF4F808191810097D1F64BC071
:100C80008E010A501F4FFE01E850FF4F60817181B5
:100C9000828193810E945C38DC01CB01F801918351
:100CA0008083DE01AE50BF4FFE01EA50FF4F8081CE
:100CB000918111969C938E93FE01EE50FF4F80819F
:100CC00091810197F1F7FE01EE50FF4F91838083F0
:100CD00022C08E0100501F4FFE01EF5FFE4F60816A
:100CE0007181828193810E945C38DC01CB01F80123
:100CF0008083DE01AF50BF4FFE01E050FF4F808187
:100D00008C93FE01EF50FF4F80818A95F1F7FE0131
:100D1000EF50FF4F808381E0809361001092670065
:100D2000109266008BC280916100282F30E0809184
:100D3000660090916700A90102C0559547958A9574
:100D4000E2F7CA0181709070882341F0A5E3B0E01A
:100D5000E5E3F0E0808184608C9307C0A5E3B0E018
:100D6000E5E3F0E080818B7F8C93A5E3B0E0E5E3E1
:100D7000F0E080818E7F8C93FE01E351FF4F80E095
:100D800090E0A0E8BFE380839183A283B3838E01C8
:100D900007511F4FFE01E351FF4F60817181828136
:100DA00093812BEA3AEA4AEA50E40E940139DC01D5
:100DB000CB01F80180839183A283B383FE01E751C5
:100DC000FF4F608171818281938120E030E040E8B3
:100DD0005FE30E94F037882334F4FE01E851FF4FAF
:100DE00081E08083E0C0FE01E751FF4F60817181A7
:100DF0008281938120E030E04FE753E40E94FD3888
:100E000018160CF0C0C0FE01E351FF4F60817181E4
:100E10008281938120E030E04AE754E40E94F43775
:100E2000DC01CB01FE01EC51FF4F80839183A28353
:100E3000B3838E0100521F4FFE01EC51FF4F6081C2
:100E400071818281938120E030E04AE755E40E947D
:100E50000139DC01CB01F80180839183A283B38344
:100E6000FE01E052FF4F608171818281938120E019
:100E700030E040E85FE30E94F037882344F4FE014D
:100E8000E252FF4F81E090E09183808364C0FE01D5
:100E9000E052FF4F608171818281938120E03FEFBA
:100EA0004FE757E40E94FD3818160CF043C0FE01CE
:100EB000EC51FF4F608171818281938120E030E0AD
:100EC00040E251E40E940139DC01CB018E01025263
:100ED0001F4FBC01CD010E945C38DC01CB01F80141
:100EE000918380831FC0FE01E452FF4F80E991E0AF
:100EF00091838083FE01E452FF4F808191810197AD
:100F0000F1F7FE01E452FF4F91838083DE01A2528C
:100F1000BF4FFE01E252FF4F8081918101971196F0
:100F20009C938E93FE01E252FF4F80819181009746
:100F3000D1F64BC08E0102521F4FFE01E052FF4F0F
:100F400060817181828193810E945C38DC01CB01D8
:100F5000F80191838083DE01A652BF4FFE01E25269
:100F6000FF4F8081918111969C938E93FE01E652F2
:100F7000FF4F808191810197F1F7FE01E652FF4F0B
:100F80009183808322C08E0108511F4FFE01E751DB
:100F9000FF4F60817181828193810E945C38DC0106
:100FA000CB01F8018083DE01A752BF4FFE01E8515B
:100FB000FF4F80818C93FE01E752FF4F80818A951D
:100FC000F1F7FE01E752FF4F8083A5E3B0E0E5E3D0
:100FD000F0E0808181608C93FE01EB52FF4F80E056
:100FE00090E0A0E8BFE380839183A283B3838E0166
:100FF0000F521F4FFE01EB52FF4F608171818281C2
:1010000093812BEA3AEA4AEA50E40E940139DC0172
:10101000CB01F80180839183A283B383FE01EF5259
:10102000FF4F608171818281938120E030E040E850
:101030005FE30E94F037882334F4FE01E053FF4F52
:1010400081E08083E0C0FE01EF52FF4F608171813B
:101050008281938120E030E04FE753E40E94FD3825
:1010600018160CF0C0C0FE01EB52FF4F6081718179
:101070008281938120E030E04AE754E40E94F43713
:10108000DC01CB01FE01E453FF4F80839183A283F7
:10109000B3838E0108531F4FFE01E453FF4F60815D
:1010A00071818281938120E030E04AE755E40E941B
:1010B0000139DC01CB01F80180839183A283B383E2
:1010C000FE01E853FF4F608171818281938120E0AE
:1010D00030E040E85FE30E94F037882344F4FE01EB
:1010E000EA53FF4F81E090E09183808364C0FE016A
:1010F000E853FF4F608171818281938120E03FEF4F
:101100004FE757E40E94FD3818160CF043C0FE016B
:10111000E453FF4F608171818281938120E030E050
:1011200040E251E40E940139DC01CB018E010A53F7
:101130001F4FBC01CD010E945C38DC01CB01F801DE
:10114000918380831FC0FE01EC53FF4F80E991E043
:1011500091838083FE01EC53FF4F80819181019741
:10116000F1F7FE01EC53FF4F91838083DE01AA5318
:10117000BF4FFE01EA53FF4F808191810197119685
:101180009C938E93FE01EA53FF4F808191810097DB
:10119000D1F64BC08E010A531F4FFE01E853FF4F9B
:1011A00060817181828193810E945C38DC01CB0176
:1011B000F80191838083DE01AE53BF4FFE01EA53F5
:1011C000FF4F8081918111969C938E93FE01EE5387
:1011D000FF4F808191810197F1F7FE01EE53FF4FA0
:1011E0009183808322C08E0100531F4FFE01EF5276
:1011F000FF4F60817181828193810E945C38DC01A4
:10120000CB01F8018083DE01AF53BF4FFE01E053F5
:10121000FF4F80818C93FE01EF53FF4F80818A95B1
:10122000F1F7FE01EF53FF4F8083809166009091AC
:101230006700019690936700809366008091660036
:1012400090916700883091050CF46DCDA5E3B0E076
:10125000E5E3F0E0808184608C9383E48093610017
:1012600010926700109266008BC280916100282F57
:1012700030E08091660090916700A90102C0559509
:1012800047958A95E2F7CA0181709070882341F0F2
:10129000A5E3B0E0E5E3F0E0808184608C9307C0D3
:1012A000A5E3B0E0E5E3F0E080818B7F8C93A5E3DC
:1012B000B0E0E5E3F0E080818E7F8C93FE01E354A3
:1012C000FF4F80E090E0A0E8BFE380839183A2839A
:1012D000B3838E0107541F4FFE01E354FF4F60811B
:1012E0007181828193812BEA3AEA4AEA50E40E94B2
:1012F0000139DC01CB01F80180839183A283B383A0
:10130000FE01E754FF4F608171818281938120E06B
:1013100030E040E85FE30E94F037882334F4FE01B8
:10132000E854FF4F81E08083E0C0FE01E754FF4FA7
:10133000608171818281938120E030E04FE753E446
:101340000E94FD3818160CF0C0C0FE01E354FF4F98
:10135000608171818281938120E030E04AE754E42A
:101360000E94F437DC01CB01FE01EC54FF4F808377
:101370009183A283B3838E0100551F4FFE01EC546D
:10138000FF4F608171818281938120E030E04AE7E4
:1013900055E40E940139DC01CB01F801808391837F
:1013A000A283B383FE01E055FF4F6081718182818A
:1013B000938120E030E040E85FE30E94F03788232B
:1013C00044F4FE01E255FF4F81E090E09183808379
:1013D00064C0FE01E055FF4F60817181828193817D
:1013E00020E03FEF4FE757E40E94FD3818160CF05D
:1013F00043C0FE01EC54FF4F608171818281938173
:1014000020E030E040E251E40E940139DC01CB01F0
:101410008E0102551F4FBC01CD010E945C38DC01DA
:10142000CB01F801918380831FC0FE01E455FF4F7B
:1014300080E991E091838083FE01E455FF4F808134
:1014400091810197F1F7FE01E455FF4F918380836D
:10145000DE01A255BF4FFE01E255FF4F8081918111
:10146000019711969C938E93FE01E255FF4F808168
:1014700091810097D1F64BC08E0102551F4FFE019E
:10148000E055FF4F60817181828193810E945C38B9
:10149000DC01CB01F80191838083DE01A655BF4FAB
:1014A000FE01E255FF4F8081918111969C938E93AE
:1014B000FE01E655FF4F808191810197F1F7FE0112
:1014C000E655FF4F9183808322C08E0108541F4F41
:1014D000FE01E754FF4F60817181828193810E94F8
:1014E0005C38DC01CB01F8018083DE01A755BF4FDA
:1014F000FE01E854FF4F80818C93FE01E755FF4FBA
:1015000080818A95F1F7FE01E755FF4F8083A5E3BF
:10151000B0E0E5E3F0E0808181608C93FE01EB5563
:10152000FF4F80E090E0A0E8BFE380839183A28337
:10153000B3838E010F551F4FFE01EB55FF4F6081A6
:101540007181828193812BEA3AEA4AEA50E40E944F
:101550000139DC01CB01F80180839183A283B3833D
:10156000FE01EF55FF4F608171818281938120E000
:1015700030E040E85FE30E94F037882334F4FE0156
:10158000E056FF4F81E08083E0C0FE01EF55FF4F42
:10159000608171818281938120E030E04FE753E4E4
:1015A0000E94FD3818160CF0C0C0FE01EB55FF4F2D
:1015B000608171818281938120E030E04AE754E4C8
:1015C0000E94F437DC01CB01FE01E456FF4F80831B
:1015D0009183A283B3838E0108561F4FFE01E45608
:1015E000FF4F608171818281938120E030E04AE782
:1015F00055E40E940139DC01CB01F801808391831D
:10160000A283B383FE01E856FF4F6081718182811E
:10161000938120E030E040E85FE30E94F0378823C8
:1016200044F4FE01EA56FF4F81E090E0918380830D
:1016300064C0FE01E856FF4F608171818281938111
:1016400020E03FEF4FE757E40E94FD3818160CF0FA
:1016500043C0FE01E456FF4F608171818281938116
:1016600020E030E040E251E40E940139DC01CB018E
:101670008E010A561F4FBC01CD010E945C38DC016F
:10168000CB01F801918380831FC0FE01EC56FF4F10
:1016900080E991E091838083FE01EC56FF4F8081C9
:1016A00091810197F1F7FE01EC56FF4F9183808302
:1016B000DE01AA56BF4FFE01EA56FF4F808191819D
:1016C000019711969C938E93FE01EA56FF4F8081FD
:1016D00091810097D1F64BC08E010A561F4FFE0133
:1016E000E856FF4F60817181828193810E945C384E
:1016F000DC01CB01F80191838083DE01AE56BF4F40
:10170000FE01EA56FF4F8081918111969C938E9342
:10171000FE01EE56FF4F808191810197F1F7FE01A6
:10172000EE56FF4F9183808322C08E0100561F4FDB
:10173000FE01EF55FF4F60817181828193810E948C
:101740005C38DC01CB01F8018083DE01AF56BF4F6E
:10175000FE01E056FF4F80818C93FE01EF56FF4F54
:1017600080818A95F1F7FE01EF56FF4F80838091CB
:1017700066009091670001969093670080936600E1
:101780008091660090916700883091050CF46DCDD2
:10179000A5E3B0E0E5E3F0E0808184608C931092F3
:1017A00067001092660070C2A5E3B0E0E5E3F0E0E8
:1017B00080818B7F8C93A5E3B0E0E5E3F0E080814E
:1017C0008E7F8C93FE01E357FF4F80E090E0A0E80E
:1017D000BFE380839183A283B3838E0107571F4F9A
:1017E000FE01E357FF4F60817181828193812BEA73
:1017F0003AEA4AEA50E40E940139DC01CB01F801DF
:1018000080839183A283B383FE01E757FF4F6081FA
:1018100071818281938120E030E040E85FE30E94A3
:10182000F037882334F4FE01E857FF4F81E08083CE
:10183000E0C0FE01E757FF4F608171818281938193
:1018400020E030E04FE753E40E94FD3818160CF01A
:10185000C0C0FE01E357FF4F608171818281938197
:1018600020E030E04AE754E40E94F437DC01CB0189
:10187000FE01EC57FF4F80839183A283B3838E01D7
:1018800000581F4FFE01EC57FF4F6081718182812C
:10189000938120E030E04AE755E40E940139DC0101
:1018A000CB01F80180839183A283B383FE01E058CA
:1018B000FF4F608171818281938120E030E040E8B8
:1018C0005FE30E94F037882344F4FE01E258FF4FA3
:1018D00081E090E09183808364C0FE01E058FF4F77
:1018E000608171818281938120E03FEF4FE757E46F
:1018F0000E94FD3818160CF043C0FE01EC57FF4F54
:10190000608171818281938120E030E040E251E486
:101910000E940139DC01CB018E0102581F4FBC012E
:10192000CD010E945C38DC01CB01F80191838083FA
:101930001FC0FE01E458FF4F80E991E0918380834E
:10194000FE01E458FF4F808191810197F1F7FE017C
:10195000E458FF4F91838083DE01A258BF4FFE0100
:10196000E258FF4F80819181019711969C938E934D
:10197000FE01E258FF4F808191810097D1F64BC064
:101980008E0102581F4FFE01E058FF4F60817181A8
:10199000828193810E945C38DC01CB01F801918344
:1019A0008083DE01A658BF4FFE01E258FF4F8081C1
:1019B000918111969C938E93FE01E658FF4F808192
:1019C00091810197F1F7FE01E658FF4F91838083E3
:1019D00022C08E0108571F4FFE01E757FF4F60815D
:1019E0007181828193810E945C38DC01CB01F80116
:1019F0008083DE01A758BF4FFE01E857FF4F80816B
:101A00008C93FE01E758FF4F80818A95F1F7FE0124
:101A1000E758FF4F8083A5E3B0E0E5E3F0E0808185
:101A200081608C93FE01EB58FF4F80E090E0A0E8CE
:101A3000BFE380839183A283B3838E010F581F4F2E
:101A4000FE01EB58FF4F60817181828193812BEA07
:101A50003AEA4AEA50E40E940139DC01CB01F8017C
:101A600080839183A283B383FE01EF58FF4F60818F
:101A700071818281938120E030E040E85FE30E9441
:101A8000F037882334F4FE01E059FF4F81E0808372
:101A9000E0C0FE01EF58FF4F608171818281938128
:101AA00020E030E04FE753E40E94FD3818160CF0B8
:101AB000C0C0FE01EB58FF4F60817181828193812C
:101AC00020E030E04AE754E40E94F437DC01CB0127
:101AD000FE01E459FF4F80839183A283B3838E017B
:101AE00008591F4FFE01E459FF4F608171818281C7
:101AF000938120E030E04AE755E40E940139DC019F
:101B0000CB01F80180839183A283B383FE01E8595E
:101B1000FF4F608171818281938120E030E040E855
:101B20005FE30E94F037882344F4FE01EA59FF4F37
:101B300081E090E09183808364C0FE01E859FF4F0B
:101B4000608171818281938120E03FEF4FE757E40C
:101B50000E94FD3818160CF043C0FE01E459FF4FF7
:101B6000608171818281938120E030E040E251E424
:101B70000E940139DC01CB018E010A591F4FBC01C3
:101B8000CD010E945C38DC01CB01F8019183808398
:101B90001FC0FE01EC59FF4F80E991E091838083E3
:101BA000FE01EC59FF4F808191810197F1F7FE0111
:101BB000EC59FF4F91838083DE01AA59BF4FFE018C
:101BC000EA59FF4F80819181019711969C938E93E2
:101BD000FE01EA59FF4F808191810097D1F64BC0F9
:101BE0008E010A591F4FFE01E859FF4F6081718134
:101BF000828193810E945C38DC01CB01F8019183E2
:101C00008083DE01AE59BF4FFE01EA59FF4F80814C
:101C1000918111969C938E93FE01EE59FF4F808126
:101C200091810197F1F7FE01EE59FF4F9183808377
:101C300022C08E0100591F4FFE01EF58FF4F6081F7
:101C40007181828193810E945C38DC01CB01F801B3
:101C50008083DE01AF59BF4FFE01E059FF4F808105
:101C60008C93FE01EF59FF4F80818A95F1F7FE01B9
:101C7000EF59FF4F80838091660090916700019635
:101C80009093670080936600809166009091670052
:101C9000883091050CF488CDA5E3B0E0E5E3F0E0F1
:101CA000808184608C9381E0809361001092670052
:101CB000109266003FC280916100282F30E0809131
:101CC000660090916700A90102C0559547958A95D5
:101CD000E2F7CA0181709070882341F0A5E3B0E07B
:101CE000E5E3F0E0808184608C9307C0A5E3B0E079
:101CF000E5E3F0E080818B7F8C93A5E3B0E0E5E342
:101D0000F0E080818E7F8C93FE01E35AFF4F80E0EC
:101D100090E0A0E8BFE380839183A283B3838E0128
:101D2000075A1F4FFE01E35AFF4F60817181828184
:101D300093812BEA3AEA4AEA50E40E940139DC0135
:101D4000CB01F80180839183A283B383FE01E75A1C
:101D5000FF4F608171818281938120E030E040E813
:101D60005FE30E94F037882334F4FE01E85AFF4F06
:101D700081E08083E0C0FE01E75AFF4F60817181FE
:101D80008281938120E030E04FE753E40E94FD38E8
:101D900018160CF0C0C0FE01E35AFF4F608171813C
:101DA0008281938120E030E04AE754E40E94F437D6
:101DB000DC01CB01FE01EC5AFF4F80839183A283AB
:101DC000B3838E01005B1F4FFE01EC5AFF4F608111
:101DD00071818281938120E030E04AE755E40E94DE
:101DE0000139DC01CB01F80180839183A283B383A5
:101DF000FE01E05BFF4F608171818281938120E071
:101E000030E040E85FE30E94F037882344F4FE01AD
:101E1000E25BFF4F81E090E09183808364C0FE012C
:101E2000E05BFF4F608171818281938120E03FEF11
:101E30004FE757E40E94FD3818160CF043C0FE012E
:101E4000EC5AFF4F608171818281938120E030E004
:101E500040E251E40E940139DC01CB018E01025BBA
:101E60001F4FBC01CD010E945C38DC01CB01F801A1
:101E7000918380831FC0FE01E45BFF4F80E991E006
:101E800091838083FE01E45BFF4F80819181019704
:101E9000F1F7FE01E45BFF4F91838083DE01A25BDB
:101EA000BF4FFE01E25BFF4F808191810197119648
:101EB0009C938E93FE01E25BFF4F8081918100979E
:101EC000D1F64BC08E01025B1F4FFE01E05BFF4F5E
:101ED00060817181828193810E945C38DC01CB0139
:101EE000F80191838083DE01A65BBF4FFE01E25BB8
:101EF000FF4F8081918111969C938E93FE01E65B4A
:101F0000FF4F808191810197F1F7FE01E65BFF4F62
:101F10009183808322C08E01085A1F4FFE01E75A29
:101F2000FF4F60817181828193810E945C38DC0166
:101F3000CB01F8018083DE01A75BBF4FFE01E85AA9
:101F4000FF4F80818C93FE01E75BFF4F80818A9574
:101F5000F1F7FE01E75BFF4F8083A5E3B0E0E5E327
:101F6000F0E0808181608C93FE01EB5BFF4F80E0AD
:101F700090E0A0E8BFE380839183A283B3838E01C6
:101F80000F5B1F4FFE01EB5BFF4F60817181828110
:101F900093812BEA3AEA4AEA50E40E940139DC01D3
:101FA000CB01F80180839183A283B383FE01EF5BB1
:101FB000FF4F608171818281938120E030E040E8B1
:101FC0005FE30E94F037882334F481E0FE01E05C97
:101FD000FF4F80839DC0FE01EF5BFF4F60817181E9
:101FE0008281938120E030E04FE753E40E94FD3886
:101FF00018160CF07EC0FE01EB5BFF4F6081718113
:102000008281938120E030E04AE754E40E94F43773
:10201000DC01CB018CAF9DAFAEAFBFAF6CAD7DAD82
:102020008EAD9FAD20E030E04AE755E40E940139D3
:10203000DC01CB0188AF99AFAAAFBBAF68AD79AD7A
:102040008AAD9BAD20E030E040E85FE30E94F037CE
:1020500088232CF481E090E09FAB8EAB3FC068AD4D
:1020600079AD8AAD9BAD20E03FEF4FE757E40E948A
:10207000FD3818164CF56CAD7DAD8EAD9FAD20E0F2
:1020800030E040E251E40E940139DC01CB01BC01A7
:10209000CD010E945C38DC01CB019FAB8EAB0FC041
:1020A00080E991E09DAB8CAB8CA99DA90197F1F7DC
:1020B0009DAB8CAB8EA99FA901979FAB8EAB8EA9D0
:1020C0009FA9009769F72DC068AD79AD8AAD9BAD2A
:1020D0000E945C38DC01CB019FAB8EAB8EA99FA91F
:1020E0009BAB8AAB8AA99BA90197F1F79BAB8AAB03
:1020F00018C0FE01EF5BFF4F608171818281938187
:102100000E945C38DC01CB01FE01E05CFF4F808364
:10211000FE01E05CFF4F808189AB89A98A95F1F7C8
:1021200089AB80916600909167000196909367005B
:1021300080936600809166009091670088309105D9
:102140000CF4B9CDA5E3B0E0E5E3F0E08081846074
:102150008C9310926A0010926700109266009AC1E8
:10216000A5E3B0E0E5E3F0E080818B7F8C93A5E30D
:10217000B0E0E5E3F0E080818E7F8C9380E090E03A
:10218000A0E8BFE38DA79EA7AFA7B8AB6DA57EA5BE
:102190008FA598A92BEA3AEA4AEA50E40E9401394D
:1021A000DC01CB0189A79AA7ABA7BCA769A57AA533
:1021B0008BA59CA520E030E040E85FE30E94F0376B
:1021C00088231CF481E088A791C069A57AA58BA516
:1021D0009CA520E030E04FE753E40E94FD3818163C
:1021E0000CF07BC06DA57EA58FA598A920E030E0FE
:1021F0004AE754E40E94F437DC01CB018CA39DA391
:10220000AEA3BFA36CA17DA18EA19FA120E030E071
:102210004AE755E40E940139DC01CB0188A399A368
:10222000AAA3BBA368A179A18AA19BA120E030E069
:1022300040E85FE30E94F03788232CF481E090E0CF
:102240009F8F8E8F3FC068A179A18AA19BA120E0BA
:102250003FEF4FE757E40E94FD3818164CF56CA18C
:102260007DA18EA19FA120E030E040E251E40E94D8
:102270000139DC01CB01BC01CD010E945C38DC01DD
:10228000CB019F8F8E8F0FC080E991E09D8F8C8F47
:102290008C8D9D8D0197F1F79D8F8C8F8E8D9F8DED
:1022A00001979F8F8E8F8E8D9F8D009769F724C029
:1022B00068A179A18AA19BA10E945C38DC01CB01B5
:1022C0009F8F8E8F8E8D9F8D9B8F8A8F8A8D9B8DFA
:1022D0000197F1F79B8F8A8F0FC069A57AA58BA50F
:1022E0009CA50E945C38DC01CB0188A788A5898F5A
:1022F000898D8A95F1F7898FA5E3B0E0E5E3F0E0F9
:10230000808181608C9380E090E0A0E8BFE38D8BBA
:102310009E8BAF8BB88F6D897E898F89988D2BEAC4
:102320003AEA4AEA50E40E940139DC01CB01898B88
:102330009A8BAB8BBC8B69897A898B899C8920E0CD
:1023400030E040E85FE30E94F03788231CF481E02E
:10235000888B91C069897A898B899C8920E030E0DB
:102360004FE753E40E94FD3818160CF07BC06D89CE
:102370007E898F89988D20E030E04AE754E40E94FE
:10238000F437DC01CB018C879D87AE87BF876C85D6
:102390007D858E859F8520E030E04AE755E40E94E8
:1023A0000139DC01CB0188879987AA87BB876885BB
:1023B00079858A859B8520E030E040E85FE30E94D4
:1023C000F03788232CF481E090E09F838E833FC018
:1023D000688579858A859B8520E03FEF4FE757E444
:1023E0000E94FD3818164CF56C857D858E859F857D
:1023F00020E030E040E251E40E940139DC01CB01F1
:10240000BC01CD010E945C38DC01CB019F838E832F
:102410000FC080E991E09D838C838C819D81019721
:10242000F1F79D838C838E819F8101979F838E839B
:102430008E819F81009769F724C0688579858A8598
:102440009B850E945C38DC01CB019F838E838E814B
:102450009F819B838A838A819B810197F1F79B836C
:102460008A830FC069897A898B899C890E945C382C
:10247000DC01CB01888B8889898389818A95F1F772
:102480008983809166009091670001969093670020
:102490008093660080916600909167008830910576
:1024A0000CF45ECEA5E3B0E0E5E3F0E0808184606B
:1024B0008C93A5E3B0E0E5E3F0E0808180618C934C
:1024C000C85FDE4F0FB6F894DEBF0FBECDBFCF9111
:1024D000DF911F910F9108950F931F93DF93CF9377
:1024E000CDB7DEB7C850D1400FB6F894DEBF0FBEEF
:1024F000CDBFA5E3B0E0E5E3F0E0808184608C939C
:10250000A5E3B0E0E5E3F0E0808181608C93A5E392
:10251000B0E0E5E3F0E080818F7E8C93FE01EB5F1D
:10252000FE4F80E090E0A0EFB1E480839183A2832E
:10253000B3838E010F5F1E4FFE01EB5FFE4F608184
:102540007181828193812BEA3AEA4AEA50E40E943F
:102550000139DC01CB01F80180839183A283B3832D
:10256000FE01EF5FFE4F608171818281938120E0E7
:1025700030E040E85FE30E94F037882334F4FE0146
:10258000E050FF4F81E08083E0C0FE01EF5FFE4F2F
:10259000608171818281938120E030E04FE753E4D4
:1025A0000E94FD3818160CF0C0C0FE01EB5FFE4F14
:1025B000608171818281938120E030E04AE754E4B8
:1025C0000E94F437DC01CB01FE01E450FF4F808311
:1025D0009183A283B3838E0108501F4FFE01E45004
:1025E000FF4F608171818281938120E030E04AE772
:1025F00055E40E940139DC01CB01F801808391830D
:10260000A283B383FE01E850FF4F60817181828114
:10261000938120E030E040E85FE30E94F0378823B8
:1026200044F4FE01EA50FF4F81E090E09183808303
:1026300064C0FE01E850FF4F608171818281938107
:1026400020E03FEF4FE757E40E94FD3818160CF0EA
:1026500043C0FE01E450FF4F60817181828193810C
:1026600020E030E040E251E40E940139DC01CB017E
:102670008E010A501F4FBC01CD010E945C38DC0165
:10268000CB01F801918380831FC0FE01EC50FF4F06
:1026900080E991E091838083FE01EC50FF4F8081BF
:1026A00091810197F1F7FE01EC50FF4F91838083F8
:1026B000DE01AA50BF4FFE01EA50FF4F8081918199
:1026C000019711969C938E93FE01EA50FF4F8081F3
:1026D00091810097D1F64BC08E010A501F4FFE0129
:1026E000E850FF4F60817181828193810E945C3844
:1026F000DC01CB01F80191838083DE01AE50BF4F36
:10270000FE01EA50FF4F8081918111969C938E9338
:10271000FE01EE50FF4F808191810197F1F7FE019C
:10272000EE50FF4F9183808322C08E0100501F4FD7
:10273000FE01EF5FFE4F60817181828193810E9473
:102740005C38DC01CB01F8018083DE01AF50BF4F64
:10275000FE01E050FF4F80818C93FE01EF50FF4F50
:1027600080818A95F1F7FE01EF50FF4F808381E071
:102770008093610010926700109266008BC2809176
:102780006100282F30E08091660090916700A901D8
:1027900002C0559547958A95E2F7CA0181709070FD
:1027A000882341F0A5E3B0E0E5E3F0E080818460B8
:1027B0008C9307C0A5E3B0E0E5E3F0E080818B7F78
:1027C0008C93A5E3B0E0E5E3F0E080818E7F8C930D
:1027D000FE01E351FF4F80E090E0A0E8BFE380837B
:1027E0009183A283B3838E0107511F4FFE01E351F2
:1027F000FF4F60817181828193812BEA3AEA4AEA34
:1028000050E40E940139DC01CB01F80180839183FF
:10281000A283B383FE01E751FF4F60817181828102
:10282000938120E030E040E85FE30E94F0378823A6
:1028300034F4FE01E851FF4F81E08083E0C0FE01E7
:10284000E751FF4F608171818281938120E030E008
:102850004FE753E40E94FD3818160CF0C0C0FE018B
:10286000E351FF4F608171818281938120E030E0EC
:102870004AE754E40E94F437DC01CB01FE01EC513D
:10288000FF4F80839183A283B3838E0100521F4F39
:10289000FE01EC51FF4F608171818281938120E0C4
:1028A00030E04AE755E40E940139DC01CB01F80130
:1028B00080839183A283B383FE01E052FF4F608146
:1028C00071818281938120E030E040E85FE30E94E3
:1028D000F037882344F4FE01E252FF4F81E090E09C
:1028E0009183808364C0FE01E052FF4F608171815B
:1028F0008281938120E03FEF4FE757E40E94FD384B
:1029000018160CF043C0FE01EC51FF4F608171813D
:102910008281938120E030E040E251E40E9401395D
:10292000DC01CB018E0102521F4FBC01CD010E9480
:102930005C38DC01CB01F801918380831FC0FE016C
:10294000E452FF4F80E991E091838083FE01E452DD
:10295000FF4F808191810197F1F7FE01E452FF4F13
:1029600091838083DE01A252BF4FFE01E252FF4FEE
:1029700080819181019711969C938E93FE01E25282
:10298000FF4F808191810097D1F64BC08E0102529A
:102990001F4FFE01E052FF4F608171818281938160
:1029A0000E945C38DC01CB01F80191838083DE0159
:1029B000A652BF4FFE01E252FF4F808191811196D6
:1029C0009C938E93FE01E652FF4F80819181019787
:1029D000F1F7FE01E652FF4F9183808322C08E0102
:1029E00008511F4FFE01E751FF4F608171818281C5
:1029F00093810E945C38DC01CB01F8018083DE0109
:102A0000A752BF4FFE01E851FF4F80818C93FE011A
:102A1000E752FF4F80818A95F1F7FE01E752FF4FA1
:102A20008083A5E3B0E0E5E3F0E0808181608C93F2
:102A3000FE01EB52FF4F80E090E0A0E8BFE380830F
:102A40009183A283B3838E010F521F4FFE01EB527D
:102A5000FF4F60817181828193812BEA3AEA4AEAD1
:102A600050E40E940139DC01CB01F801808391839D
:102A7000A283B383FE01EF52FF4F60817181828197
:102A8000938120E030E040E85FE30E94F037882344
:102A900034F4FE01E053FF4F81E08083E0C0FE018B
:102AA000EF52FF4F608171818281938120E030E09D
:102AB0004FE753E40E94FD3818160CF0C0C0FE0129
:102AC000EB52FF4F608171818281938120E030E081
:102AD0004AE754E40E94F437DC01CB01FE01E453E1
:102AE000FF4F80839183A283B3838E0108531F4FCE
:102AF000FE01E453FF4F608171818281938120E068
:102B000030E04AE755E40E940139DC01CB01F801CD
:102B100080839183A283B383FE01E853FF4F6081DA
:102B200071818281938120E030E040E85FE30E9480
:102B3000F037882344F4FE01EA53FF4F81E090E030
:102B40009183808364C0FE01E853FF4F60817181EF
:102B50008281938120E03FEF4FE757E40E94FD38E8
:102B600018160CF043C0FE01E453FF4F60817181E1
:102B70008281938120E030E040E251E40E940139FB
:102B8000DC01CB018E010A531F4FBC01CD010E9415
:102B90005C38DC01CB01F801918380831FC0FE010A
:102BA000EC53FF4F80E991E091838083FE01EC5369
:102BB000FF4F808191810197F1F7FE01EC53FF4FA8
:102BC00091838083DE01AA53BF4FFE01EA53FF4F7A
:102BD00080819181019711969C938E93FE01EA5317
:102BE000FF4F808191810097D1F64BC08E010A532F
:102BF0001F4FFE01E853FF4F6081718182819381F5
:102C00000E945C38DC01CB01F80191838083DE01F6
:102C1000AE53BF4FFE01EA53FF4F80819181119661
:102C20009C938E93FE01EE53FF4F8081918101971B
:102C3000F1F7FE01EE53FF4F9183808322C08E0196
:102C400000531F4FFE01EF52FF4F6081718182815F
:102C500093810E945C38DC01CB01F8018083DE01A6
:102C6000AF53BF4FFE01E053FF4F80818C93FE01B5
:102C7000EF53FF4F80818A95F1F7FE01EF53FF4F2D
:102C80008083809166009091670001969093670021
:102C9000809366008091660090916700883091056E
:102CA0000CF46DCDA5E3B0E0E5E3F0E08081846055
:102CB0008C9384E480936100109267001092660008
:102CC0008BC280916100282F30E080916600909146
:102CD0006700A90102C0559547958A95E2F7CA0198
:102CE00081709070882341F0A5E3B0E0E5E3F0E067
:102CF000808184608C9307C0A5E3B0E0E5E3F0E059
:102D000080818B7F8C93A5E3B0E0E5E3F0E08081E8
:102D10008E7F8C93FE01E354FF4F80E090E0A0E8AB
:102D2000BFE380839183A283B3838E0107541F4F37
:102D3000FE01E354FF4F60817181828193812BEA10
:102D40003AEA4AEA50E40E940139DC01CB01F80179
:102D500080839183A283B383FE01E754FF4F608198
:102D600071818281938120E030E040E85FE30E943E
:102D7000F037882334F4FE01E854FF4F81E080836C
:102D8000E0C0FE01E754FF4F608171818281938131
:102D900020E030E04FE753E40E94FD3818160CF0B5
:102DA000C0C0FE01E354FF4F608171818281938135
:102DB00020E030E04AE754E40E94F437DC01CB0124
:102DC000FE01EC54FF4F80839183A283B3838E0175
:102DD00000551F4FFE01EC54FF4F608171818281CD
:102DE000938120E030E04AE755E40E940139DC019C
:102DF000CB01F80180839183A283B383FE01E05568
:102E0000FF4F608171818281938120E030E040E852
:102E10005FE30E94F037882344F4FE01E255FF4F40
:102E200081E090E09183808364C0FE01E055FF4F14
:102E3000608171818281938120E03FEF4FE757E409
:102E40000E94FD3818160CF043C0FE01EC54FF4FF1
:102E5000608171818281938120E030E040E251E421
:102E60000E940139DC01CB018E0102551F4FBC01CC
:102E7000CD010E945C38DC01CB01F8019183808395
:102E80001FC0FE01E455FF4F80E991E091838083EC
:102E9000FE01E455FF4F808191810197F1F7FE011A
:102EA000E455FF4F91838083DE01A255BF4FFE01A1
:102EB000E255FF4F80819181019711969C938E93EB
:102EC000FE01E255FF4F808191810097D1F64BC002
:102ED0008E0102551F4FFE01E055FF4F6081718149
:102EE000828193810E945C38DC01CB01F8019183DF
:102EF0008083DE01A655BF4FFE01E255FF4F808162
:102F0000918111969C938E93FE01E655FF4F80812F
:102F100091810197F1F7FE01E655FF4F9183808380
:102F200022C08E0108541F4FFE01E754FF4F6081FD
:102F30007181828193810E945C38DC01CB01F801B0
:102F40008083DE01A755BF4FFE01E854FF4F80810B
:102F50008C93FE01E755FF4F80818A95F1F7FE01C2
:102F6000E755FF4F8083A5E3B0E0E5E3F0E0808123
:102F700081608C93FE01EB55FF4F80E090E0A0E86C
:102F8000BFE380839183A283B3838E010F551F4FCC
:102F9000FE01EB55FF4F60817181828193812BEAA5
:102FA0003AEA4AEA50E40E940139DC01CB01F80117
:102FB00080839183A283B383FE01EF55FF4F60812D
:102FC00071818281938120E030E040E85FE30E94DC
:102FD000F037882334F4FE01E056FF4F81E0808310
:102FE000E0C0FE01EF55FF4F6081718182819381C6
:102FF00020E030E04FE753E40E94FD3818160CF053
:10300000C0C0FE01EB55FF4F6081718182819381C9
:1030100020E030E04AE754E40E94F437DC01CB01C1
:10302000FE01E456FF4F80839183A283B3838E0118
:1030300008561F4FFE01E456FF4F60817181828167
:10304000938120E030E04AE755E40E940139DC0139
:10305000CB01F80180839183A283B383FE01E856FC
:10306000FF4F608171818281938120E030E040E8F0
:103070005FE30E94F037882344F4FE01EA56FF4FD5
:1030800081E090E09183808364C0FE01E856FF4FA9
:10309000608171818281938120E03FEF4FE757E4A7
:1030A0000E94FD3818160CF043C0FE01E456FF4F95
:1030B000608171818281938120E030E040E251E4BF
:1030C0000E940139DC01CB018E010A561F4FBC0161
:1030D000CD010E945C38DC01CB01F8019183808333
:1030E0001FC0FE01EC56FF4F80E991E09183808381
:1030F000FE01EC56FF4F808191810197F1F7FE01AF
:10310000EC56FF4F91838083DE01AA56BF4FFE012C
:10311000EA56FF4F80819181019711969C938E937F
:10312000FE01EA56FF4F808191810097D1F64BC096
:103130008E010A561F4FFE01E856FF4F60817181D4
:10314000828193810E945C38DC01CB01F80191837C
:103150008083DE01AE56BF4FFE01EA56FF4F8081ED
:10316000918111969C938E93FE01EE56FF4F8081C4
:1031700091810197F1F7FE01EE56FF4F9183808315
:1031800022C08E0100561F4FFE01EF55FF4F608198
:103190007181828193810E945C38DC01CB01F8014E
:1031A0008083DE01AF56BF4FFE01E056FF4F8081A6
:1031B0008C93FE01EF56FF4F80818A95F1F7FE0157
:1031C000EF56FF4F808380916600909167000196D3
:1031D00090936700809366008091660090916700ED
:1031E000883091050CF46DCDA5E3B0E0E5E3F0E0A7
:1031F000808184608C93109267001092660070C288
:10320000A5E3B0E0E5E3F0E080818B7F8C93A5E35C
:10321000B0E0E5E3F0E080818E7F8C93FE01E35720
:10322000FF4F80E090E0A0E8BFE380839183A2831A
:10323000B3838E0107571F4FFE01E357FF4F608195
:103240007181828193812BEA3AEA4AEA50E40E9432
:103250000139DC01CB01F80180839183A283B38320
:10326000FE01E757FF4F608171818281938120E0E9
:1032700030E040E85FE30E94F037882334F4FE0139
:10328000E857FF4F81E08083E0C0FE01E757FF4F22
:10329000608171818281938120E030E04FE753E4C7
:1032A0000E94FD3818160CF0C0C0FE01E357FF4F16
:1032B000608171818281938120E030E04AE754E4AB
:1032C0000E94F437DC01CB01FE01EC57FF4F8083F5
:1032D0009183A283B3838E0100581F4FFE01EC57E8
:1032E000FF4F608171818281938120E030E04AE765
:1032F00055E40E940139DC01CB01F8018083918300
:10330000A283B383FE01E058FF4F60817181828107
:10331000938120E030E040E85FE30E94F0378823AB
:1033200044F4FE01E258FF4F81E090E091838083F6
:1033300064C0FE01E058FF4F6081718182819381FA
:1033400020E03FEF4FE757E40E94FD3818160CF0DD
:1033500043C0FE01EC57FF4F6081718182819381F0
:1033600020E030E040E251E40E940139DC01CB0171
:103370008E0102581F4FBC01CD010E945C38DC0158
:10338000CB01F801918380831FC0FE01E458FF4FF9
:1033900080E991E091838083FE01E458FF4F8081B2
:1033A00091810197F1F7FE01E458FF4F91838083EB
:1033B000DE01A258BF4FFE01E258FF4F808191818C
:1033C000019711969C938E93FE01E258FF4F8081E6
:1033D00091810097D1F64BC08E0102581F4FFE011C
:1033E000E058FF4F60817181828193810E945C3837
:1033F000DC01CB01F80191838083DE01A658BF4F29
:10340000FE01E258FF4F8081918111969C938E932B
:10341000FE01E658FF4F808191810197F1F7FE018F
:10342000E658FF4F9183808322C08E0108571F4FBB
:10343000FE01E757FF4F60817181828193810E9475
:103440005C38DC01CB01F8018083DE01A758BF4F57
:10345000FE01E857FF4F80818C93FE01E758FF4F34
:1034600080818A95F1F7FE01E758FF4F8083A5E33D
:10347000B0E0E5E3F0E0808181608C93FE01EB58E1
:10348000FF4F80E090E0A0E8BFE380839183A283B8
:10349000B3838E010F581F4FFE01EB58FF4F608121
:1034A0007181828193812BEA3AEA4AEA50E40E94D0
:1034B0000139DC01CB01F80180839183A283B383BE
:1034C000FE01EF58FF4F608171818281938120E07E
:1034D00030E040E85FE30E94F037882334F4FE01D7
:1034E000E059FF4F81E08083E0C0FE01EF58FF4FBD
:1034F000608171818281938120E030E04FE753E465
:103500000E94FD3818160CF0C0C0FE01EB58FF4FAA
:10351000608171818281938120E030E04AE754E448
:103520000E94F437DC01CB01FE01E459FF4F808398
:103530009183A283B3838E0108591F4FFE01E45982
:10354000FF4F608171818281938120E030E04AE702
:1035500055E40E940139DC01CB01F801808391839D
:10356000A283B383FE01E859FF4F6081718182819C
:10357000938120E030E040E85FE30E94F037882349
:1035800044F4FE01EA59FF4F81E090E0918380838B
:1035900064C0FE01E859FF4F60817181828193818F
:1035A00020E03FEF4FE757E40E94FD3818160CF07B
:1035B00043C0FE01E459FF4F608171818281938194
:1035C00020E030E040E251E40E940139DC01CB010F
:1035D0008E010A591F4FBC01CD010E945C38DC01ED
:1035E000CB01F801918380831FC0FE01EC59FF4F8E
:1035F00080E991E091838083FE01EC59FF4F808147
:1036000091810197F1F7FE01EC59FF4F918380837F
:10361000DE01AA59BF4FFE01EA59FF4F8081918117
:10362000019711969C938E93FE01EA59FF4F80817A
:1036300091810097D1F64BC08E010A591F4FFE01B0
:10364000E859FF4F60817181828193810E945C38CB
:10365000DC01CB01F80191838083DE01AE59BF4FBD
:10366000FE01EA59FF4F8081918111969C938E93C0
:10367000FE01EE59FF4F808191810197F1F7FE0124
:10368000EE59FF4F9183808322C08E0100591F4F56
:10369000FE01EF58FF4F60817181828193810E940A
:1036A0005C38DC01CB01F8018083DE01AF59BF4FEC
:1036B000FE01E059FF4F80818C93FE01EF59FF4FCF
:1036C00080818A95F1F7FE01EF59FF4F8083809149
:1036D0006600909167000196909367008093660062
:1036E0008091660090916700883091050CF488CD38
:1036F000A5E3B0E0E5E3F0E0808184608C9381E0B5
:103700008093610010926700109266003FC2809122
:103710006100282F30E08091660090916700A90138
:1037200002C0559547958A95E2F7CA01817090705D
:10373000882341F0A5E3B0E0E5E3F0E08081846018
:103740008C9307C0A5E3B0E0E5E3F0E080818B7FD8
:103750008C93A5E3B0E0E5E3F0E080818E7F8C936D
:10376000FE01E35AFF4F80E090E0A0E8BFE38083D2
:103770009183A283B3838E01075A1F4FFE01E35A40
:10378000FF4F60817181828193812BEA3AEA4AEA94
:1037900050E40E940139DC01CB01F8018083918360
:1037A000A283B383FE01E75AFF4F6081718182815A
:1037B000938120E030E040E85FE30E94F037882307
:1037C00034F4FE01E85AFF4F81E08083E0C0FE013F
:1037D000E75AFF4F608171818281938120E030E060
:1037E0004FE753E40E94FD3818160CF0C0C0FE01EC
:1037F000E35AFF4F608171818281938120E030E044
:103800004AE754E40E94F437DC01CB01FE01EC5A94
:10381000FF4F80839183A283B3838E01005B1F4F90
:10382000FE01EC5AFF4F608171818281938120E01B
:1038300030E04AE755E40E940139DC01CB01F80190
:1038400080839183A283B383FE01E05BFF4F60819D
:1038500071818281938120E030E040E85FE30E9443
:10386000F037882344F4FE01E25BFF4F81E090E0F3
:103870009183808364C0FE01E05BFF4F60817181B2
:103880008281938120E03FEF4FE757E40E94FD38AB
:1038900018160CF043C0FE01EC5AFF4F6081718195
:1038A0008281938120E030E040E251E40E940139BE
:1038B000DC01CB018E01025B1F4FBC01CD010E94D8
:1038C0005C38DC01CB01F801918380831FC0FE01CD
:1038D000E45BFF4F80E991E091838083FE01E45B2C
:1038E000FF4F808191810197F1F7FE01E45BFF4F6B
:1038F00091838083DE01A25BBF4FFE01E25BFF4F3D
:1039000080819181019711969C938E93FE01E25BD9
:10391000FF4F808191810097D1F64BC08E01025BF1
:103920001F4FFE01E05BFF4F6081718182819381B7
:103930000E945C38DC01CB01F80191838083DE01B9
:10394000A65BBF4FFE01E25BFF4F80819181119624
:103950009C938E93FE01E65BFF4F808191810197DE
:10396000F1F7FE01E65BFF4F9183808322C08E0159
:10397000085A1F4FFE01E75AFF4F60817181828113
:1039800093810E945C38DC01CB01F8018083DE0169
:10399000A75BBF4FFE01E85AFF4F80818C93FE0169
:1039A000E75BFF4F80818A95F1F7FE01E75BFF4FF0
:1039B0008083A5E3B0E0E5E3F0E0808181608C9353
:1039C000FE01EB5BFF4F80E090E0A0E8BFE3808367
:1039D0009183A283B3838E010F5B1F4FFE01EB5BCC
:1039E000FF4F60817181828193812BEA3AEA4AEA32
:1039F00050E40E940139DC01CB01F80180839183FE
:103A0000A283B383FE01EF5BFF4F608171818281EE
:103A1000938120E030E040E85FE30E94F0378823A4
:103A200034F481E0FE01E05CFF4F80839DC0FE0125
:103A3000EF5BFF4F608171818281938120E030E0F4
:103A40004FE753E40E94FD3818160CF07EC0FE01CB
:103A5000EB5BFF4F608171818281938120E030E0D8
:103A60004AE754E40E94F437DC01CB018CAF9DAFF0
:103A7000AEAFBFAF6CAD7DAD8EAD9FAD20E030E0A1
:103A80004AE755E40E940139DC01CB0188AF99AFC8
:103A9000AAAFBBAF68AD79AD8AAD9BAD20E030E099
:103AA00040E85FE30E94F03788232CF481E090E047
:103AB0009FAB8EAB3FC068AD79AD8AAD9BAD20E0CA
:103AC0003FEF4FE757E40E94FD3818164CF56CADF8
:103AD0007DAD8EAD9FAD20E030E040E251E40E942C
:103AE0000139DC01CB01BC01CD010E945C38DC0155
:103AF000CB019FAB8EAB0FC080E991E09DAB8CAB4F
:103B00008CA99DA90197F1F79DAB8CAB8EA99FA9BC
:103B100001979FAB8EAB8EA99FA9009769F72DC027
:103B200068AD79AD8AAD9BAD0E945C38DC01CB01FC
:103B30009FAB8EAB8EA99FA99BAB8AAB8AA99BA991
:103B40000197F1F79BAB8AAB18C0FE01EF5BFF4F0B
:103B500060817181828193810E945C38DC01CB019C
:103B6000FE01E05CFF4F8083FE01E05CFF4F80813F
:103B700089AB89A98A95F1F789AB8091660090910C
:103B800067000196909367008093660080916600BD
:103B900090916700883091050CF4B9CDA5E3B0E0B1
:103BA000E5E3F0E0808184608C9383E080936100A2
:103BB0001092670010926600B5C180916100282FB5
:103BC00030E08091660090916700A90102C0559590
:103BD00047958A95E2F7CA0181709070882341F079
:103BE000A5E3B0E0E5E3F0E0808184608C9307C05A
:103BF000A5E3B0E0E5E3F0E080818B7F8C93A5E363
:103C0000B0E0E5E3F0E080818E7F8C9380E090E08F
:103C1000A0E8BFE38DA79EA7AFA7B8AB6DA57EA513
:103C20008FA598A92BEA3AEA4AEA50E40E940139A2
:103C3000DC01CB0189A79AA7ABA7BCA769A57AA588
:103C40008BA59CA520E030E040E85FE30E94F037C0
:103C500088231CF481E088A791C069A57AA58BA56B
:103C60009CA520E030E04FE753E40E94FD38181691
:103C70000CF07BC06DA57EA58FA598A920E030E053
:103C80004AE754E40E94F437DC01CB018CA39DA3E6
:103C9000AEA3BFA36CA17DA18EA19FA120E030E0C7
:103CA0004AE755E40E940139DC01CB0188A399A3BE
:103CB000AAA3BBA368A179A18AA19BA120E030E0BF
:103CC00040E85FE30E94F03788232CF481E090E025
:103CD0009F8F8E8F3FC068A179A18AA19BA120E010
:103CE0003FEF4FE757E40E94FD3818164CF56CA1E2
:103CF0007DA18EA19FA120E030E040E251E40E942E
:103D00000139DC01CB01BC01CD010E945C38DC0132
:103D1000CB019F8F8E8F0FC080E991E09D8F8C8F9C
:103D20008C8D9D8D0197F1F79D8F8C8F8E8D9F8D42
:103D300001979F8F8E8F8E8D9F8D009769F724C07E
:103D400068A179A18AA19BA10E945C38DC01CB010A
:103D50009F8F8E8F8E8D9F8D9B8F8A8F8A8D9B8D4F
:103D60000197F1F79B8F8A8F0FC069A57AA58BA564
:103D70009CA50E945C38DC01CB0188A788A5898FAF
:103D8000898D8A95F1F7898FA5E3B0E0E5E3F0E04E
:103D9000808181608C9380E090E0A0E8BFE38D8B10
:103DA0009E8BAF8BB88F6D897E898F89988D2BEA1A
:103DB0003AEA4AEA50E40E940139DC01CB01898BDE
:103DC0009A8BAB8BBC8B69897A898B899C8920E023
:103DD00030E040E85FE30E94F03788231CF481E084
:103DE000888B91C069897A898B899C8920E030E031
:103DF0004FE753E40E94FD3818160CF07BC06D8924
:103E00007E898F89988D20E030E04AE754E40E9453
:103E1000F437DC01CB018C879D87AE87BF876C852B
:103E20007D858E859F8520E030E04AE755E40E943D
:103E30000139DC01CB0188879987AA87BB87688510
:103E400079858A859B8520E030E040E85FE30E9429
:103E5000F03788232CF481E090E09F838E833FC06D
:103E6000688579858A859B8520E03FEF4FE757E499
:103E70000E94FD3818164CF56C857D858E859F85D2
:103E800020E030E040E251E40E940139DC01CB0146
:103E9000BC01CD010E945C38DC01CB019F838E8385
:103EA0000FC080E991E09D838C838C819D81019777
:103EB000F1F79D838C838E819F8101979F838E83F1
:103EC0008E819F81009769F724C0688579858A85EE
:103ED0009B850E945C38DC01CB019F838E838E81A1
:103EE0009F819B838A838A819B810197F1F79B83C2
:103EF0008A830FC069897A898B899C890E945C3882
:103F0000DC01CB01888B8889898389818A95F1F7C7
:103F10008983809166009091670001969093670075
:103F200080936600809166009091670088309105CB
:103F30000CF443CEA5E3B0E0E5E3F0E080818460DB
:103F40008C93A5E3B0E0E5E3F0E0808180618C93A1
:103F5000C85FDE4F0FB6F894DEBF0FBECDBFCF9166
:103F6000DF911F910F9108950F931F93DF93CF93CC
:103F7000CDB7DEB7C85CD1400FB6F894DEBF0FBE38
:103F8000CDBFA5E3B0E0E5E3F0E0808184608C93F1
:103F9000A5E3B0E0E5E3F0E0808181608C93A5E3E8
:103FA000B0E0E5E3F0E080818F7E8C93FE01EB537F
:103FB000FE4F80E090E0A0EFB1E480839183A28384
:103FC000B3838E010F531E4FFE01EB53FE4F6081F2
:103FD0007181828193812BEA3AEA4AEA50E40E9495
:103FE0000139DC01CB01F80180839183A283B38383
:103FF000FE01EF53FE4F608171818281938120E049
:1040000030E040E85FE30E94F037882334F4FE019B
:10401000E054FE4F81E08083E0C0FE01EF53FE4F8D
:10402000608171818281938120E030E04FE753E429
:104030000E94FD3818160CF0C0C0FE01EB53FE4F75
:10404000608171818281938120E030E04AE754E40D
:104050000E94F437DC01CB01FE01E454FE4F808363
:104060009183A283B3838E0108541E4FFE01E45452
:10407000FE4F608171818281938120E030E04AE7C8
:1040800055E40E940139DC01CB01F8018083918362
:10409000A283B383FE01E854FE4F60817181828167
:1040A000938120E030E040E85FE30E94F03788230E
:1040B00044F4FE01EA54FE4F81E090E09183808356
:1040C00064C0FE01E854FE4F60817181828193815A
:1040D00020E03FEF4FE757E40E94FD3818160CF040
:1040E00043C0FE01E454FE4F60817181828193815F
:1040F00020E030E040E251E40E940139DC01CB01D4
:104100008E010A541E4FBC01CD010E945C38DC01B7
:10411000CB01F801918380831FC0FE01EC54FE4F58
:1041200080E991E091838083FE01EC54FE4F808111
:1041300091810197F1F7FE01EC54FE4F918380834A
:10414000DE01AA54BE4FFE01EA54FE4F80819181E8
:10415000019711969C938E93FE01EA54FE4F808145
:1041600091810097D1F64BC08E010A541E4FFE017B
:10417000E854FE4F60817181828193810E945C3896
:10418000DC01CB01F80191838083DE01AE54BE4F88
:10419000FE01EA54FE4F8081918111969C938E938B
:1041A000FE01EE54FE4F808191810197F1F7FE01EF
:1041B000EE54FE4F9183808322C08E0100541E4F27
:1041C000FE01EF53FE4F60817181828193810E94D5
:1041D0005C38DC01CB01F8018083DE01AF54BE4FB7
:1041E000FE01E054FE4F80818C93FE01EF54FE4FA0
:1041F00080818A95F1F7FE01EF54FE4F808381E0C4
:104200008093610010926700109266008BC28091CB
:104210006100282F30E08091660090916700A9012D
:1042200002C0559547958A95E2F7CA018170907052
:10423000882341F0A5E3B0E0E5E3F0E0808184600D
:104240008C9307C0A5E3B0E0E5E3F0E080818B7FCD
:104250008C93A5E3B0E0E5E3F0E080818E7F8C9362
:10426000FE01E355FE4F80E090E0A0E8BFE38083CD
:104270009183A283B3838E0107551E4FFE01E35540
:10428000FE4F60817181828193812BEA3AEA4AEA8A
:1042900050E40E940139DC01CB01F8018083918355
:1042A000A283B383FE01E755FE4F60817181828155
:1042B000938120E030E040E85FE30E94F0378823FC
:1042C00034F4FE01E855FE4F81E08083E0C0FE013A
:1042D000E755FE4F608171818281938120E030E05B
:1042E0004FE753E40E94FD3818160CF0C0C0FE01E1
:1042F000E355FE4F608171818281938120E030E03F
:104300004AE754E40E94F437DC01CB01FE01EC558E
:10431000FE4F80839183A283B3838E0100561E4F8C
:10432000FE01EC55FE4F608171818281938120E016
:1043300030E04AE755E40E940139DC01CB01F80185
:1043400080839183A283B383FE01E056FE4F608198
:1043500071818281938120E030E040E85FE30E9438
:10436000F037882344F4FE01E256FE4F81E090E0EE
:104370009183808364C0FE01E056FE4F60817181AD
:104380008281938120E03FEF4FE757E40E94FD38A0
:1043900018160CF043C0FE01EC55FE4F6081718190
:1043A0008281938120E030E040E251E40E940139B3
:1043B000DC01CB018E0102561E4FBC01CD010E94D3
:1043C0005C38DC01CB01F801918380831FC0FE01C2
:1043D000E456FE4F80E991E091838083FE01E4562C
:1043E000FE4F808191810197F1F7FE01E456FE4F67
:1043F00091838083DE01A256BE4FFE01E256FE4F3E
:1044000080819181019711969C938E93FE01E256D3
:10441000FE4F808191810097D1F64BC08E010256EC
:104420001E4FFE01E056FE4F6081718182819381B3
:104430000E945C38DC01CB01F80191838083DE01AE
:10444000A656BE4FFE01E256FE4F80819181119625
:104450009C938E93FE01E656FE4F808191810197D9
:10446000F1F7FE01E656FE4F9183808322C08E0154
:1044700008551E4FFE01E755FE4F60817181828114
:1044800093810E945C38DC01CB01F8018083DE015E
:10449000A756BE4FFE01E855FE4F80818C93FE016A
:1044A000E756FE4F80818A95F1F7FE01E756FE4FF1
:1044B0008083A5E3B0E0E5E3F0E0808181608C9348
:1044C000FE01EB56FE4F80E090E0A0E8BFE3808362
:1044D0009183A283B3838E010F561E4FFE01EB56CC
:1044E000FE4F60817181828193812BEA3AEA4AEA28
:1044F00050E40E940139DC01CB01F80180839183F3
:10450000A283B383FE01EF56FE4F608171818281E9
:10451000938120E030E040E85FE30E94F037882399
:1045200034F4FE01E057FE4F81E08083E0C0FE01DD
:10453000EF56FE4F608171818281938120E030E0EF
:104540004FE753E40E94FD3818160CF0C0C0FE017E
:10455000EB56FE4F608171818281938120E030E0D3
:104560004AE754E40E94F437DC01CB01FE01E45732
:10457000FE4F80839183A283B3838E0108571E4F21
:10458000FE01E457FE4F608171818281938120E0BA
:1045900030E04AE755E40E940139DC01CB01F80123
:1045A00080839183A283B383FE01E857FE4F60812D
:1045B00071818281938120E030E040E85FE30E94D6
:1045C000F037882344F4FE01EA57FE4F81E090E083
:1045D0009183808364C0FE01E857FE4F6081718142
:1045E0008281938120E03FEF4FE757E40E94FD383E
:1045F00018160CF043C0FE01E457FE4F6081718134
:104600008281938120E030E040E251E40E94013950
:10461000DC01CB018E010A571E4FBC01CD010E9467
:104620005C38DC01CB01F801918380831FC0FE015F
:10463000EC57FE4F80E991E091838083FE01EC57B7
:10464000FE4F808191810197F1F7FE01EC57FE4FFB
:1046500091838083DE01AA57BE4FFE01EA57FE4FC9
:1046600080819181019711969C938E93FE01EA5768
:10467000FE4F808191810097D1F64BC08E010A5781
:104680001E4FFE01E857FE4F608171818281938148
:104690000E945C38DC01CB01F80191838083DE014C
:1046A000AE57BE4FFE01EA57FE4F808191811196B1
:1046B0009C938E93FE01EE57FE4F8081918101976E
:1046C000F1F7FE01EE57FE4F9183808322C08E01E9
:1046D00000571E4FFE01EF56FE4F608171818281AF
:1046E00093810E945C38DC01CB01F8018083DE01FC
:1046F000AF57BE4FFE01E057FE4F80818C93FE0105
:10470000EF57FE4F80818A95F1F7FE01EF57FE4F7C
:104710008083809166009091670001969093670076
:1047200080936600809166009091670088309105C3
:104730000CF46DCDA5E3B0E0E5E3F0E080818460AA
:104740008C9382E48093610010926700109266005F
:104750008BC280916100282F30E08091660090919B
:104760006700A90102C0559547958A95E2F7CA01ED
:1047700081709070882341F0A5E3B0E0E5E3F0E0BC
:10478000808184608C9307C0A5E3B0E0E5E3F0E0AE
:1047900080818B7F8C93A5E3B0E0E5E3F0E080813E
:1047A0008E7F8C93FE01E358FE4F80E090E0A0E8FE
:1047B000BFE380839183A283B3838E0107581E4F8A
:1047C000FE01E358FE4F60817181828193812BEA63
:1047D0003AEA4AEA50E40E940139DC01CB01F801CF
:1047E00080839183A283B383FE01E758FE4F6081EB
:1047F00071818281938120E030E040E85FE30E9494
:10480000F037882334F4FE01E858FE4F81E08083BE
:10481000E0C0FE01E758FE4F608171818281938183
:1048200020E030E04FE753E40E94FD3818160CF00A
:10483000C0C0FE01E358FE4F608171818281938187
:1048400020E030E04AE754E40E94F437DC01CB0179
:10485000FE01EC58FE4F80839183A283B3838E01C7
:1048600000591E4FFE01EC58FE4F6081718182811C
:10487000938120E030E04AE755E40E940139DC01F1
:10488000CB01F80180839183A283B383FE01E059B9
:10489000FE4F608171818281938120E030E040E8A9
:1048A0005FE30E94F037882344F4FE01E259FE4F93
:1048B00081E090E09183808364C0FE01E059FE4F67
:1048C000608171818281938120E03FEF4FE757E45F
:1048D0000E94FD3818160CF043C0FE01EC58FE4F44
:1048E000608171818281938120E030E040E251E477
:1048F0000E940139DC01CB018E0102591E4FBC011F
:10490000CD010E945C38DC01CB01F80191838083EA
:104910001FC0FE01E459FE4F80E991E0918380833E
:10492000FE01E459FE4F808191810197F1F7FE016C
:10493000E459FE4F91838083DE01A259BE4FFE01F0
:10494000E259FE4F80819181019711969C938E933D
:10495000FE01E259FE4F808191810097D1F64BC054
:104960008E0102591E4FFE01E059FE4F6081718198
:10497000828193810E945C38DC01CB01F801918334
:104980008083DE01A659BE4FFE01E259FE4F8081B1
:10499000918111969C938E93FE01E659FE4F808182
:1049A00091810197F1F7FE01E659FE4F91838083D3
:1049B00022C08E0108581E4FFE01E758FE4F60814D
:1049C0007181828193810E945C38DC01CB01F80106
:1049D0008083DE01A759BE4FFE01E858FE4F80815B
:1049E0008C93FE01E759FE4F80818A95F1F7FE0115
:1049F000E759FE4F8083A5E3B0E0E5E3F0E0808176
:104A000081608C93FE01EB59FE4F80E090E0A0E8BE
:104A1000BFE380839183A283B3838E010F591E4F1E
:104A2000FE01EB59FE4F60817181828193812BEAF7
:104A30003AEA4AEA50E40E940139DC01CB01F8016C
:104A400080839183A283B383FE01EF59FE4F60817F
:104A500071818281938120E030E040E85FE30E9431
:104A6000F037882334F4FE01E05AFE4F81E0808362
:104A7000E0C0FE01EF59FE4F608171818281938118
:104A800020E030E04FE753E40E94FD3818160CF0A8
:104A9000C0C0FE01EB59FE4F60817181828193811C
:104AA00020E030E04AE754E40E94F437DC01CB0117
:104AB000FE01E45AFE4F80839183A283B3838E016B
:104AC000085A1E4FFE01E45AFE4F608171818281B7
:104AD000938120E030E04AE755E40E940139DC018F
:104AE000CB01F80180839183A283B383FE01E85A4E
:104AF000FE4F608171818281938120E030E040E847
:104B00005FE30E94F037882344F4FE01EA5AFE4F27
:104B100081E090E09183808364C0FE01E85AFE4FFB
:104B2000608171818281938120E03FEF4FE757E4FC
:104B30000E94FD3818160CF043C0FE01E45AFE4FE7
:104B4000608171818281938120E030E040E251E414
:104B50000E940139DC01CB018E010A5A1E4FBC01B3
:104B6000CD010E945C38DC01CB01F8019183808388
:104B70001FC0FE01EC5AFE4F80E991E091838083D3
:104B8000FE01EC5AFE4F808191810197F1F7FE0101
:104B9000EC5AFE4F91838083DE01AA5ABE4FFE017C
:104BA000EA5AFE4F80819181019711969C938E93D2
:104BB000FE01EA5AFE4F808191810097D1F64BC0E9
:104BC0008E010A5A1E4FFE01E85AFE4F6081718124
:104BD000828193810E945C38DC01CB01F8019183D2
:104BE0008083DE01AE5ABE4FFE01EA5AFE4F80813D
:104BF000918111969C938E93FE01EE5AFE4F808117
:104C000091810197F1F7FE01EE5AFE4F9183808367
:104C100022C08E01005A1E4FFE01EF59FE4F6081E7
:104C20007181828193810E945C38DC01CB01F801A3
:104C30008083DE01AF5ABE4FFE01E05AFE4F8081F5
:104C40008C93FE01EF5AFE4F80818A95F1F7FE01A9
:104C5000EF5AFE4F80838091660090916700019625
:104C60009093670080936600809166009091670042
:104C7000883091050CF46DCDA5E3B0E0E5E3F0E0FC
:104C8000808184608C93109267001092660070C2DD
:104C9000A5E3B0E0E5E3F0E080818B7F8C93A5E3B2
:104CA000B0E0E5E3F0E080818E7F8C93FE01E35B72
:104CB000FE4F80E090E0A0E8BFE380839183A28371
:104CC000B3838E01075B1E4FFE01E35BFE4F6081E5
:104CD0007181828193812BEA3AEA4AEA50E40E9488
:104CE0000139DC01CB01F80180839183A283B38376
:104CF000FE01E75BFE4F608171818281938120E03C
:104D000030E040E85FE30E94F037882334F4FE018E
:104D1000E85BFE4F81E08083E0C0FE01E75BFE4F71
:104D2000608171818281938120E030E04FE753E41C
:104D30000E94FD3818160CF0C0C0FE01E35BFE4F68
:104D4000608171818281938120E030E04AE754E400
:104D50000E94F437DC01CB01FE01EC5BFE4F808347
:104D60009183A283B3838E01005C1E4FFE01EC5B36
:104D7000FE4F608171818281938120E030E04AE7BB
:104D800055E40E940139DC01CB01F8018083918355
:104D9000A283B383FE01E05CFE4F6081718182815A
:104DA000938120E030E040E85FE30E94F037882301
:104DB00044F4FE01E25CFE4F81E090E09183808349
:104DC00064C0FE01E05CFE4F60817181828193814D
:104DD00020E03FEF4FE757E40E94FD3818160CF033
:104DE00043C0FE01EC5BFE4F608171818281938143
:104DF00020E030E040E251E40E940139DC01CB01C7
:104E00008E01025C1E4FBC01CD010E945C38DC01AA
:104E1000CB01F801918380831FC0FE01E45CFE4F4B
:104E200080E991E091838083FE01E45CFE4F808104
:104E300091810197F1F7FE01E45CFE4F918380833D
:104E4000DE01A25CBE4FFE01E25CFE4F80819181DB
:104E5000019711969C938E93FE01E25CFE4F808138
:104E600091810097D1F64BC08E01025C1E4FFE016E
:104E7000E05CFE4F60817181828193810E945C3889
:104E8000DC01CB01F80191838083DE01A65CBE4F7B
:104E9000FE01E25CFE4F8081918111969C938E937E
:104EA000FE01E65CFE4F808191810197F1F7FE01E2
:104EB000E65CFE4F9183808322C08E01085B1E4F0B
:104EC000FE01E75BFE4F60817181828193810E94C8
:104ED0005C38DC01CB01F8018083DE01A75CBE4FAA
:104EE000FE01E85BFE4F80818C93FE01E75CFE4F84
:104EF00080818A95F1F7FE01E75CFE4F8083A5E390
:104F0000B0E0E5E3F0E0808181608C93FE01EB5C32
:104F1000FE4F80E090E0A0E8BFE380839183A2830E
:104F2000B3838E010F5C1E4FFE01EB5CFE4F608170
:104F30007181828193812BEA3AEA4AEA50E40E9425
:104F40000139DC01CB01F80180839183A283B38313
:104F5000FE01EF5CFE4F608171818281938120E0D0
:104F600030E040E85FE30E94F037882334F4FE012C
:104F7000E05DFE4F81E08083E0C0FE01EF5CFE4F0C
:104F8000608171818281938120E030E04FE753E4BA
:104F90000E94FD3818160CF0C0C0FE01EB5CFE4FFD
:104FA000608171818281938120E030E04AE754E49E
:104FB0000E94F437DC01CB01FE01E45DFE4F8083EB
:104FC0009183A283B3838E01085D1E4FFE01E45DD1
:104FD000FE4F608171818281938120E030E04AE759
:104FE00055E40E940139DC01CB01F80180839183F3
:104FF000A283B383FE01E85DFE4F608171818281EF
:10500000938120E030E040E85FE30E94F03788239E
:1050100044F4FE01EA5DFE4F81E090E091838083DD
:1050200064C0FE01E85DFE4F6081718182819381E1
:1050300020E03FEF4FE757E40E94FD3818160CF0D0
:1050400043C0FE01E45DFE4F6081718182819381E6
:1050500020E030E040E251E40E940139DC01CB0164
:105060008E010A5D1E4FBC01CD010E945C38DC013F
:10507000CB01F801918380831FC0FE01EC5DFE4FE0
:1050800080E991E091838083FE01EC5DFE4F808199
:1050900091810197F1F7FE01EC5DFE4F91838083D2
:1050A000DE01AA5DBE4FFE01EA5DFE4F8081918167
:1050B000019711969C938E93FE01EA5DFE4F8081CD
:1050C00091810097D1F64BC08E010A5D1E4FFE0103
:1050D000E85DFE4F60817181828193810E945C381E
:1050E000DC01CB01F80191838083DE01AE5DBE4F10
:1050F000FE01EA5DFE4F8081918111969C938E9313
:10510000FE01EE5DFE4F808191810197F1F7FE0176
:10511000EE5DFE4F9183808322C08E01005D1E4FA5
:10512000FE01EF5CFE4F60817181828193810E945C
:105130005C38DC01CB01F8018083DE01AF5DBE4F3E
:10514000FE01E05DFE4F80818C93FE01EF5DFE4F1E
:1051500080818A95F1F7FE01EF5DFE4F808380919B
:1051600066009091670001969093670080936600B7
:105170008091660090916700883091050CF488CD8D
:10518000A5E3B0E0E5E3F0E0808184608C931092C9
:10519000650010926700109266009EC2A5E3B0E021
:1051A000E5E3F0E080818B7F8C93A5E3B0E0E5E35D
:1051B000F0E080818E7F8C93FE01E35EFE4F80E005
:1051C00090E0A0E8BFE380839183A283B3838E0144
:1051D000075E1E4FFE01E35EFE4F6081718182819A
:1051E00093812BEA3AEA4AEA50E40E940139DC0151
:1051F000CB01F80180839183A283B383FE01E75E34
:10520000FE4F608171818281938120E030E040E82F
:105210005FE30E94F037882334F4FE01E85EFE4F1E
:1052200081E08083E0C0FE01E75EFE4F6081718116
:105230008281938120E030E04FE753E40E94FD3803
:1052400018160CF0C0C0FE01E35EFE4F6081718154
:105250008281938120E030E04AE754E40E94F437F1
:10526000DC01CB01FE01EC5EFE4F80839183A283C3
:10527000B3838E01005F1E4FFE01EC5EFE4F608126
:1052800071818281938120E030E04AE755E40E94F9
:105290000139DC01CB01F80180839183A283B383C0
:1052A000FE01E05FFE4F608171818281938120E089
:1052B00030E040E85FE30E94F037882344F4FE01C9
:1052C000E25FFE4F81E090E09183808364C0FE0145
:1052D000E05FFE4F608171818281938120E03FEF2A
:1052E0004FE757E40E94FD3818160CF043C0FE014A
:1052F000EC5EFE4F608171818281938120E030E01D
:1053000040E251E40E940139DC01CB018E01025FD1
:105310001E4FBC01CD010E945C38DC01CB01F801BD
:10532000918380831FC0FE01E45FFE4F80E991E01E
:1053300091838083FE01E45FFE4F8081918101971C
:10534000F1F7FE01E45FFE4F91838083DE01A25FEF
:10535000BE4FFE01E25FFE4F808191810197119661
:105360009C938E93FE01E25FFE4F808191810097B6
:10537000D1F64BC08E01025F1E4FFE01E05FFE4F73
:1053800060817181828193810E945C38DC01CB0154
:10539000F80191838083DE01A65FBE4FFE01E25FCC
:1053A000FE4F8081918111969C938E93FE01E65F62
:1053B000FE4F808191810197F1F7FE01E65FFE4F7C
:1053C0009183808322C08E01085E1E4FFE01E75E3E
:1053D000FE4F60817181828193810E945C38DC0183
:1053E000CB01F8018083DE01A75FBE4FFE01E85EBE
:1053F000FE4F80818C93FE01E75FFE4F80818A958E
:10540000F1F7FE01E75FFE4F8083E3E3F0E0808188
:10541000882F90E0827090700097A1F42091660030
:105420003091670081E090E0022E02C0880F991F42
:105430000A94E2F7982F90958091650089238093D4
:10544000650011C0209166003091670081E090E016
:1054500002C0880F991F2A95E2F7982F8091650066
:10546000892B80936500A5E3B0E0E5E3F0E080815F
:1054700081608C93FE01EB5FFE4F80E090E0A0E83E
:10548000BFE380839183A283B3838E010F5F1E4F9E
:10549000FE01EB5FFE4F60817181828193812BEA77
:1054A0003AEA4AEA50E40E940139DC01CB01F801F2
:1054B00080839183A283B383FE01EF5FFE4F6081FF
:1054C00071818281938120E030E040E85FE30E94B7
:1054D000F037882334F4FE01E050FF4F81E08083F1
:1054E000E0C0FE01EF5FFE4F608171818281938198
:1054F00020E030E04FE753E40E94FD3818160CF02E
:10550000C0C0FE01EB5FFE4F60817181828193819B
:1055100020E030E04AE754E40E94F437DC01CB019C
:10552000FE01E450FF4F80839183A283B3838E01F9
:1055300008501F4FFE01E450FF4F6081718182814E
:10554000938120E030E04AE755E40E940139DC0114
:10555000CB01F80180839183A283B383FE01E850DD
:10556000FF4F608171818281938120E030E040E8CB
:105570005FE30E94F037882344F4FE01EA50FF4FB6
:1055800081E090E09183808364C0FE01E850FF4F8A
:10559000608171818281938120E03FEF4FE757E482
:1055A0000E94FD3818160CF043C0FE01E450FF4F76
:1055B000608171818281938120E030E040E251E49A
:1055C0000E940139DC01CB018E010A501F4FBC0142
:1055D000CD010E945C38DC01CB01F801918380830E
:1055E0001FC0FE01EC50FF4F80E991E09183808362
:1055F000FE01EC50FF4F808191810197F1F7FE0190
:10560000EC50FF4F91838083DE01AA50BF4FFE0113
:10561000EA50FF4F80819181019711969C938E9360
:10562000FE01EA50FF4F808191810097D1F64BC077
:105630008E010A501F4FFE01E850FF4F60817181BB
:10564000828193810E945C38DC01CB01F801918357
:105650008083DE01AE50BF4FFE01EA50FF4F8081D4
:10566000918111969C938E93FE01EE50FF4F8081A5
:1056700091810197F1F7FE01EE50FF4F91838083F6
:1056800022C08E0100501F4FFE01EF5FFE4F608170
:105690007181828193810E945C38DC01CB01F80129
:1056A0008083DE01AF50BF4FFE01E050FF4F80818D
:1056B0008C93FE01EF50FF4F80818A95F1F7FE0138
:1056C000EF50FF4F808380916600909167000196B4
:1056D00090936700809366008091660090916700C8
:1056E000883091050CF45ACDA5E3B0E0E5E3F0E095
:1056F000808184608C9310926A00109267001092EF
:1057000066009EC2A5E3B0E0E5E3F0E080818B7F18
:105710008C93A5E3B0E0E5E3F0E080818E7F8C938D
:10572000FE01E351FF4F80E090E0A0E8BFE38083FB
:105730009183A283B3838E0107511F4FFE01E35172
:10574000FF4F60817181828193812BEA3AEA4AEAB4
:1057500050E40E940139DC01CB01F8018083918380
:10576000A283B383FE01E751FF4F60817181828183
:10577000938120E030E040E85FE30E94F037882327
:1057800034F4FE01E851FF4F81E08083E0C0FE0168
:10579000E751FF4F608171818281938120E030E089
:1057A0004FE753E40E94FD3818160CF0C0C0FE010C
:1057B000E351FF4F608171818281938120E030E06D
:1057C0004AE754E40E94F437DC01CB01FE01EC51BE
:1057D000FF4F80839183A283B3838E0100521F4FBA
:1057E000FE01EC51FF4F608171818281938120E045
:1057F00030E04AE755E40E940139DC01CB01F801B1
:1058000080839183A283B383FE01E052FF4F6081C6
:1058100071818281938120E030E040E85FE30E9463
:10582000F037882344F4FE01E252FF4F81E090E01C
:105830009183808364C0FE01E052FF4F60817181DB
:105840008281938120E03FEF4FE757E40E94FD38CB
:1058500018160CF043C0FE01EC51FF4F60817181BE
:105860008281938120E030E040E251E40E940139DE
:10587000DC01CB018E0102521F4FBC01CD010E9401
:105880005C38DC01CB01F801918380831FC0FE01ED
:10589000E452FF4F80E991E091838083FE01E4525E
:1058A000FF4F808191810197F1F7FE01E452FF4F94
:1058B00091838083DE01A252BF4FFE01E252FF4F6F
:1058C00080819181019711969C938E93FE01E25203
:1058D000FF4F808191810097D1F64BC08E0102521B
:1058E0001F4FFE01E052FF4F6081718182819381E1
:1058F0000E945C38DC01CB01F80191838083DE01DA
:10590000A652BF4FFE01E252FF4F80819181119656
:105910009C938E93FE01E652FF4F80819181019707
:10592000F1F7FE01E652FF4F9183808322C08E0182
:1059300008511F4FFE01E751FF4F60817181828145
:1059400093810E945C38DC01CB01F8018083DE0189
:10595000A752BF4FFE01E851FF4F80818C93FE019B
:10596000E752FF4F80818A95F1F7FE01E752FF4F22
:105970008083E3E3F0E08081882F90E08270907074
:105980000097A1F4209166003091670081E090E0DB
:10599000022E02C0880F991F0A94E2F7982F909563
:1059A00080916A00892380936A0011C0209166006B
:1059B0003091670081E090E002C0880F991F2A951E
:1059C000E2F7982F80916A00892B80936A00A5E303
:1059D000B0E0E5E3F0E0808181608C93FE01EB5262
:1059E000FF4F80E090E0A0E8BFE380839183A28333
:1059F000B3838E010F521F4FFE01EB52FF4F6081A8
:105A00007181828193812BEA3AEA4AEA50E40E944A
:105A10000139DC01CB01F80180839183A283B38338
:105A2000FE01EF52FF4F608171818281938120E0FE
:105A300030E040E85FE30E94F037882334F4FE0151
:105A4000E053FF4F81E08083E0C0FE01EF52FF4F43
:105A5000608171818281938120E030E04FE753E4DF
:105A60000E94FD3818160CF0C0C0FE01EB52FF4F2B
:105A7000608171818281938120E030E04AE754E4C3
:105A80000E94F437DC01CB01FE01E453FF4F808319
:105A90009183A283B3838E0108531F4FFE01E45309
:105AA000FF4F608171818281938120E030E04AE77D
:105AB00055E40E940139DC01CB01F8018083918318
:105AC000A283B383FE01E853FF4F6081718182811D
:105AD000938120E030E040E85FE30E94F0378823C4
