:100000000C9472000C9489000C9489000C94890063
:100010000C9489000C9489000C9489000C9489003C
:100020000C9489000C9489000C9489000C9489002C
:100030000C9489000C9489000C9489000C9489001C
:100040000C9489000C9489000C9489000C9489000C
:100050000C9489000C9489000C9489000C948900FC
:100060000C9489000C9489000C9489000C948900EC
:100070000C9489000C9489000C9489000C948900DC
:100080000C9489000C9489000C9489000C948900CC
:100090000C9489000C9489000C9489000C948900BC
:1000A0000C9489000C9489000C9489000C948900AC
:1000B0000C9489000C9489000C9489000C9489009C
:1000C0000C9489000C9489000C9489000C9489008C
:1000D0000C9489000C9489000C9489000C9489007C
:1000E0000C94890011241FBECFEFD1E2DEBFCDBF3B
:1000F00012E0A0E0B2E0E0E2F6E100E00BBF02C0F7
:1001000007900D92A030B107D9F70E94C5020C9458
:100110000E0B0C940000DF93CF93CDB7DEB764973E
:100120000FB6F894DEBF0FBECDBF698B7A8B8B8B79
:100130009C8B90C0188A1F8677C080E090E0A0E278
:10014000B1E48B879C87AD87BE876B857C858D8569
:100150009E8520E030E04AE755E40E94AB0ADC01CE
:10016000CB018F839887A987BA876F817885898526
:100170009A8520E030E040E85FE30E949A098823F6
:100180002CF481E090E09E838D833FC06F81788561
:1001900089859A8520E03FEF4FE757E40E94A70A40
:1001A00018164CF56B857C858D859E8520E030E0AA
:1001B00040E251E40E94AB0ADC01CB01BC01CD015D
:1001C0000E94060ADC01CB019E838D830FC080E96B
:1001D00091E09C838B838B819C810197F1F79C83B9
:1001E0008B838D819E8101979E838D838D819E81DE
:1001F000009769F714C06F81788589859A850E9478
:10020000060ADC01CB019E838D838D819E819A83BA
:10021000898389819A810197F1F79A8389838F85F0
:1002200098890196988B8F878F8598898436910558
:100230000CF483CF69897A898B899C8920E030E02E
:1002400040E85FE30E943509DC01CB01898B9A8B82
:10025000AB8BBC8B69897A898B899C8920E030E0E3
:1002600040E050E00E949A09882309F063CF649629
:100270000FB6F894DEBF0FBECDBFCF91DF910895CA
:10028000DF93CF93CDB7DEB762970FB6F894DEBF9A
:100290000FBECDBF6F87788B898B9A8B82C080E031
:1002A00090E0A0E2B1E48B879C87AD87BE876B8529
:1002B0007C858D859E8520E030E04AE755E40E94EC
:1002C000AB0ADC01CB018F839887A987BA876F813E
:1002D000788589859A8520E030E040E85FE30E94D8
:1002E0009A0988232CF481E090E09E838D833FC09F
:1002F0006F81788589859A8520E03FEF4FE757E445
:100300000E94A70A18164CF56B857C858D859E8505
:1003100020E030E040E251E40E94AB0ADC01CB0176
:10032000BC01CD010E94060ADC01CB019E838D83B6
:100330000FC080E991E09C838B838B819C81019726
:10034000F1F79C838B838D819E8101979E838D83A2
:100350008D819E81009769F714C06F8178858985AA
:100360009A850E94060ADC01CB019E838D838D81D4
:100370009E819A83898389819A810197F1F79A8373
:1003800089836F85788989899A8920E030E040E8FF
:100390005FE30E943509DC01CB018F87988BA98B25
:1003A000BA8B6F85788989899A8920E030E040E0AE
:1003B00050E00E949A09882309F071CF62960FB627
:1003C000F894DEBF0FBECDBFCF91DF910895DF93CC
:1003D000CF93CDB7DEB76A970FB6F894DEBF0FBEE6
:1003E000CDBF9A8F898FC3C080E090E0A0E2B1E4D6
:1003F0008D8B9E8BAF8BB88F6D897E898F89988D01
:100400002BEA3AEA4AEA50E40E94AB0ADC01CB014B
:10041000898B9A8BAB8BBC8B69897A898B899C89F8
:1004200020E030E040E85FE30E949A0988231CF452
:1004300081E0888B91C069897A898B899C8920E0C9
:1004400030E04FE753E40E94A70A18160CF07BC077
:100450006D897E898F89988D20E030E04AE754E4E9
:100460000E949E09DC01CB018C879D87AE87BF87E8
:100470006C857D858E859F8520E030E04AE755E4D8
:100480000E94AB0ADC01CB0188879987AA87BB87CA
:10049000688579858A859B8520E030E040E85FE3C8
:1004A0000E949A0988232CF481E090E09F838E8338
:1004B0003FC0688579858A859B8520E03FEF4FE7BF
:1004C00057E40E94A70A18164CF56C857D858E8529
:1004D0009F8520E030E040E251E40E94AB0ADC015D
:1004E000CB01BC01CD010E94060ADC01CB019F8338
:1004F0008E830FC080E991E09D838C838C819D81E8
:100500000197F1F79D838C838E819F8101979F8353
:100510008E838E819F81009769F724C068857985D5
:100520008A859B850E94060ADC01CB019F838E830E
:100530008E819F819B838A838A819B810197F1F7BA
:100540009B838A830FC069897A898B899C890E94E1
:10055000060ADC01CB01888B8889898389818A9589
:10056000F1F78983898D9A8D01979A8F898F898D6B
:100570009A8D009709F038CF6A960FB6F894DEBFCF
:100580000FBECDBFCF91DF9108950F931F93DF93DF
:10059000CF93CDB7DEB7CC58D0400FB6F894DEBFBE
:1005A0000FBECDBFE1E2F0E08FEF8083E2E2F0E04A
:1005B0008AEA8083E4E2F0E08FEF8083E5E2F0E016
:1005C0008AEA8083E7E2F0E08FEF8083E8E2F0E000
:1005D0008AEA8083EAE2F0E08FEF8083EBE2F0E0EA
:1005E0008AEA8083EDE2F0E08FEF8083EEE2F0E0D4
:1005F0008AEA8083E0E3F0E08FEF8083E1E3F0E0DC
:100600008AEA8083E3E3F0E08FEF8083E4E3F0E0C5
:100610008AEA8083E4E0F1E08FEF8083E5E0F1E0B7
:100620008AEA8083E7E0F1E08FEF8083E8E0F1E0A1
:100630008AEA8083EAE0F1E08FEF8083EBE0F1E08B
:100640008AEA8083A2E2B0E0E2E2F0E08081809575
:100650008C93FE01E757FF4F80E090E0A8ECB2E4F6
:1006600080839183A283B3838E010B571F4FFE01BA
:10067000E757FF4F608171818281938120E030E0F4
:100680004AE755E40E94AB0ADC01CB01F801808304
:100690009183A283B383FE01EB57FF4F6081718189
:1006A0008281938120E030E040E85FE30E949A0974
:1006B000882344F4FE01ED57FF4F81E090E09183E1
:1006C000808364C0FE01EB57FF4F6081718182819E
:1006D000938120E03FEF4FE757E40E94A70A1816E6
:1006E0000CF043C0FE01E757FF4F608171818281AA
:1006F000938120E030E040E251E40E94AB0ADC014B
:10070000CB018E010D571F4FBC01CD010E94060A7F
:10071000DC01CB01F801918380831FC0FE01EF57FC
:10072000FF4F80E991E091838083FE01EF57FF4FF7
:10073000808191810197F1F7FE01EF57FF4F91837F
:100740008083DE01AD57BF4FFE01ED57FF4F808123
:100750009181019711969C938E93FE01ED57FF4F67
:10076000808191810097D1F627C08E010D571F4FD0
:10077000FE01EB57FF4F60817181828193810E945E
:10078000060ADC01CB01F80191838083DE01A158C8
:10079000BF4FFE01ED57FF4F808191818D939C9358
:1007A000FE01E158FF4F808191810197F1F7FE0131
:1007B000E158FF4F91838083A5E2B0E0E5E2F0E0ED
:1007C000808180958C93FE01E558FF4F80E090E09A
:1007D000A8ECB2E480839183A283B3838E0109588D
:1007E0001F4FFE01E558FF4F608171818281938127
:1007F00020E030E04AE755E40E94AB0ADC01CB017F
:10080000F80180839183A283B383FE01E958FF4FEF
:10081000608171818281938120E030E040E85FE374
:100820000E949A09882344F4FE01EB58FF4F81E0AF
:1008300090E09183808364C0FE01E958FF4F60819E
:1008400071818281938120E03FEF4FE757E40E945E
:10085000A70A18160CF043C0FE01E558FF4F60814F
:1008600071818281938120E030E040E251E40E9476
:10087000AB0ADC01CB018E010B581F4FBC01CD012F
:100880000E94060ADC01CB01F801918380831FC01E
:10089000FE01ED58FF4F80E991E091838083FE01D6
:1008A000ED58FF4F808191810197F1F7FE01ED58DE
:1008B000FF4F91838083DE01AB58BF4FFE01EB58A1
:1008C000FF4F80819181019711969C938E93FE0139
:1008D000EB58FF4F808191810097D1F627C08E01A0
:1008E0000B581F4FFE01E958FF4F608171818281D3
:1008F00093810E94060ADC01CB01F8019183808379
:10090000DE01AF58BF4FFE01EB58FF4F8081918150
:100910008D939C93FE01EF58FF4F80819181019749
:10092000F1F7FE01EF58FF4F91838083A8E2B0E01A
:10093000E8E2F0E0808180958C93FE01E359FF4F5F
:1009400080E090E0A8ECB2E480839183A283B3833B
:100950008E0107591F4FFE01E359FF4F60817181DE
:100960008281938120E030E04AE755E40E94AB0A9F
:10097000DC01CB01F80180839183A283B383FE0164
:10098000E759FF4F608171818281938120E030E0DF
:1009900040E85FE30E949A09882344F4FE01E95984
:1009A000FF4F81E090E09183808364C0FE01E759AE
:1009B000FF4F608171818281938120E03FEF4FE79B
:1009C00057E40E94A70A18160CF043C0FE01E35931
:1009D000FF4F608171818281938120E030E040E2AD
:1009E00051E40E94AB0ADC01CB018E0109591F4F73
:1009F000BC01CD010E94060ADC01CB01F801918304
:100A000080831FC0FE01EB59FF4F80E991E0918385
:100A10008083FE01EB59FF4F808191810197F1F7AF
:100A2000FE01EB59FF4F91838083DE01A959BF4F2F
:100A3000FE01E959FF4F80819181019711969C93A6
:100A40008E93FE01E959FF4F808191810097D1F685
:100A500027C08E0109591F4FFE01E759FF4F6081E2
:100A60007181828193810E94060ADC01CB01F80129
:100A700091838083DE01AD59BF4FFE01E959FF4FDD
:100A8000808191818D939C93FE01ED59FF4F808170
:100A900091810197F1F7FE01ED59FF4F918380831A
:100AA000ABE2B0E0EBE2F0E0808180958C93FE0158
:100AB000E15AFF4F80E090E0A8ECB2E4808391839C
:100AC000A283B3838E01055A1F4FFE01E15AFF4FE7
:100AD000608171818281938120E030E04AE755E4B2
:100AE0000E94AB0ADC01CB01F80180839183A283D1
:100AF000B383FE01E55AFF4F60817181828193814A
:100B000020E030E040E85FE30E949A09882344F443
:100B1000FE01E75AFF4F81E090E09183808364C03B
:100B2000FE01E55AFF4F608171818281938120E04F
:100B30003FEF4FE757E40E94A70A18160CF043C096
:100B4000FE01E15AFF4F608171818281938120E033
:100B500030E040E251E40E94AB0ADC01CB018E019F
:100B6000075A1F4FBC01CD010E94060ADC01CB01D0
:100B7000F801918380831FC0FE01E95AFF4F80E98D
:100B800091E091838083FE01E95AFF4F808191813A
:100B90000197F1F7FE01E95AFF4F91838083DE014F
:100BA000A75ABF4FFE01E75AFF4F808191810197FD
:100BB00011969C938E93FE01E75AFF4F808191819D
:100BC0000097D1F627C08E01075A1F4FFE01E55A44
:100BD000FF4F60817181828193810E94060ADC014E
:100BE000CB01F80191838083DE01AB5ABF4FFE0138
:100BF000E75AFF4F808191818D939C93FE01EB5AC0
:100C0000FF4F808191810197F1F7FE01EB5AFF4F71
:100C100091838083AEE2B0E0EEE2F0E080818095E7
:100C20008C93FE01EF5AFF4F80E090E0A8ECB2E415
:100C300080839183A283B3838E01035B1F4FFE01E8
:100C4000EF5AFF4F608171818281938120E030E013
:100C50004AE755E40E94AB0ADC01CB01F80180832E
:100C60009183A283B383FE01E35BFF4F60817181B7
:100C70008281938120E030E040E85FE30E949A099E
:100C8000882344F4FE01E55BFF4F81E090E091830F
:100C9000808364C0FE01E35BFF4F608171818281CC
:100CA000938120E03FEF4FE757E40E94A70A181610
:100CB0000CF043C0FE01EF5AFF4F608171818281C9
:100CC000938120E030E040E251E40E94AB0ADC0175
:100CD000CB018E01055B1F4FBC01CD010E94060AAE
:100CE000DC01CB01F801918380831FC0FE01E75B2B
:100CF000FF4F80E991E091838083FE01E75BFF4F26
:100D0000808191810197F1F7FE01E75BFF4F9183AD
:100D10008083DE01A55BBF4FFE01E55BFF4F808155
:100D20009181019711969C938E93FE01E55BFF4F95
:100D3000808191810097D1F627C08E01055B1F4FFE
:100D4000FE01E35BFF4F60817181828193810E948C
:100D5000060ADC01CB01F80191838083DE01A95BE7
:100D6000BF4FFE01E55BFF4F808191818D939C9386
:100D7000FE01E95BFF4F808191810197F1F7FE0150
:100D8000E95BFF4F91838083A1E3B0E0E1E3F0E012
:100D9000808180958C93FE01ED5BFF4F80E090E0B9
:100DA000A8ECB2E480839183A283B3838E01015CBB
:100DB0001F4FFE01ED5BFF4F608171818281938146
:100DC00020E030E04AE755E40E94AB0ADC01CB01A9
:100DD000F80180839183A283B383FE01FF96608133
:100DE00071818281938120E030E040E85FE30E94DE
:100DF0009A0988232CF481E090E09EAF8DAF46C025
:100E0000FE01FF96608171818281938120E03FEF36
:100E10004FE757E40E94A70A181664F5FE01ED5B40
:100E2000FF4F608171818281938120E030E040E258
:100E300051E40E94AB0ADC01CB01BC01CD010E9450
:100E4000060ADC01CB019EAF8DAF0FC080E991E0B7
:100E50009CAF8BAF8BAD9CAD0197F1F79CAF8BAF87
:100E60008DAD9EAD01979EAF8DAF8DAD9EAD0097C0
:100E700069F716C0FE01FF966081718182819381BE
:100E80000E94060ADC01CB019EAF8DAF8DAD9EADF9
:100E90009AAF89AF89AD9AAD0197F1F79AAF89AF53
:100EA000A4E3B0E0E4E3F0E0808180958C9380E0FF
:100EB00090E0A8ECB2E48DAB9EABAFABB8AF6DA940
:100EC0007EA98FA998AD20E030E04AE755E40E9462
:100ED000AB0ADC01CB0189AB9AABABABBCAB69A96C
:100EE0007AA98BA99CA920E030E040E85FE30E944A
:100EF0009A0988232CF481E090E098AB8FA73FC03B
:100F000069A97AA98BA99CA920E03FEF4FE757E494
:100F10000E94A70A18164CF56DA97EA98FA998AD55
:100F200020E030E040E251E40E94AB0ADC01CB015A
:100F3000BC01CD010E94060ADC01CB0198AB8FA752
:100F40000FC080E991E09EA78DA78DA59EA5019772
:100F5000F1F79EA78DA78FA598A9019798AB8FA7AA
:100F60008FA598A9009769F714C069A97AA98BA9D8
:100F70009CA90E94060ADC01CB0198AB8FA78FA524
:100F800098A99CA78BA78BA59CA50197F1F79CA777
:100F90008BA7A5E0B1E0E5E0F1E0808180958C933E
:100FA00080E090E0A8ECB2E48FA398A7A9A7BAA725
:100FB0006FA178A589A59AA520E030E04AE755E41D
:100FC0000E94AB0ADC01CB018BA39CA3ADA3BEA303
:100FD0006BA17CA18DA19EA120E030E040E85FE301
:100FE0000E949A0988232CF481E090E09AA389A3B7
:100FF0003FC06BA17CA18DA19EA120E03FEF4FE7F8
:1010000057E40E94A70A18164CF56FA178A589A588
:101010009AA520E030E040E251E40E94AB0ADC01F6
:10102000CB01BC01CD010E94060ADC01CB019AA3D1
:1010300089A30FC080E991E098A38F8F8F8D98A12D
:101040000197F1F798A38F8F89A19AA101979AA38D
:1010500089A389A19AA1009769F714C06BA17CA10B
:101060008DA19EA10E94060ADC01CB019AA389A34F
:1010700089A19AA19E8F8D8F8D8D9E8D0197F1F7FD
:101080009E8F8D8FA8E0B1E0E8E0F1E0808180954F
:101090008C9380E090E0A8ECB2E4898F9A8FAB8FBC
:1010A000BC8F698D7A8D8B8D9C8D20E030E04AE776
:1010B00055E40E94AB0ADC01CB018D8B9E8BAF8B7C
:1010C000B88F6D897E898F89988D20E030E040E867
:1010D0005FE30E949A0988232CF481E090E09C8BC6
:1010E0008B8B3FC06D897E898F89988D20E03FEF83
:1010F0004FE757E40E94A70A18164CF5698D7A8DC0
:101100008B8D9C8D20E030E040E251E40E94AB0AE0
:10111000DC01CB01BC01CD010E94060ADC01CB0140
:101120009C8B8B8B0FC080E991E09A8B898B89898E
:101130009A890197F1F79A8B898B8B899C89019702
:101140009C8B8B8B8B899C89009769F714C06D8968
:101150007E898F89988D0E94060ADC01CB019C8BC9
:101160008B8B8B899C89988B8F878F85988901972A
:10117000F1F7988B8F87ABE0B1E0EBE0F1E0808195
:1011800080958C9380E090E0A8ECB2E48B879C87FC
:10119000AD87BE876B857C858D859E8520E030E0A0
:1011A0004AE755E40E94AB0ADC01CB018F839887A4
:1011B000A987BA876F81788589859A8520E030E094
:1011C00040E85FE30E949A0988232CF481E090E0D4
:1011D0009E838D833FC06F81788589859A8520E0C5
:1011E0003FEF4FE757E40E94A70A18164CF56B85AE
:1011F0007C858D859E8520E030E040E251E40E94B0
:10120000AB0ADC01CB01BC01CD010E94060ADC0166
:10121000CB019E838D830FC080E991E09C838B83FB
:101220008B819C810197F1F79C838B838D819E81BB
:1012300001979E838D838D819E81009769F702CAF5
:101240006F81788589859A850E94060ADC01CB0129
:101250009E838D838D819E819A83898389819A81E2
:101260000197F1F79A838983EDC95058BB27AA27C4
:101270000ED033C124D130F029D120F031F49F3F7A
:1012800011F41EF419C10EF4E095E7FB0FC1E92F2C
:1012900035D180F3BA17620773078407950718F0F2
:1012A00071F49EF54DC10EF4E0950B2EBA2FA02DD2
:1012B0000B01B90190010C01CA01A0011124FF2703
:1012C000591B99F0593F50F4503E68F11A16F040FE
:1012D000A22F232F342F4427585FF3CF46953795FD
:1012E0002795A795F0405395C9F77EF41F16BA0BC2
:1012F000620B730B840BBAF09150A1F0FF0FBB1F70
:10130000661F771F881FC2F70EC0BA0F621F731FB8
:10131000841F48F4879577956795B795F7959E3F15
:1013200008F0B3CF9395880F08F09927EE0F9795A3
:101330008795089597D008F481E008950CD0CDC02A
:10134000C5D040F0BCD030F021F45F3F19F0AEC002
:101350005111F7C0B1C0D2D098F39923C9F35523E6
:10136000B1F3951B550BBB27AA2762177307840798
:1013700038F09F5F5F4F220F331F441FAA1FA9F34E
:1013800033D00E2E3AF0E0E830D091505040E69540
:10139000001CCAF729D0FE2F27D0660F771F881FA1
:1013A000BB1F261737074807AB07B0E809F0BB0B90
:1013B000802DBF01FF2793585F4F2AF09E3F5105B4
:1013C00068F074C0BEC05F3FECF3983EDCF38695D6
:1013D00077956795B795F7959F5FC9F7880F911D2A
:1013E0009695879597F90895E1E0660F771F881F16
:1013F000BB1F621773078407BA0720F0621B730BC9
:10140000840BBA0BEE1F88F7E09508957FD088F023
:101410009F5790F0B92F9927B751A0F0D1F0660FE0
:10142000771F881F991F1AF0BA95C9F712C0B130FB
:1014300081F086D0B1E0089583C0672F782F882788
:10144000B85F39F0B93FCCF3869577956795B3953A
:10145000D9F73EF490958095709561957F4F8F4FA9
:101460009F4F0895990F0008550FAA0BE0E8FEEF73
:1014700016161706E807F907C0F012161306E40758
:10148000F50798F0621B730B840B950B39F40A2651
:1014900061F0232B242B252B21F408950A2609F42F
:1014A000A140A6958FEF811D811D089597F99F6733
:1014B00080E870E060E008959FEF80EC08950024DC
:1014C0000A941616170618060906089500240A94A9
:1014D00012161306140605060895092E0394000C2F
:1014E00011F4882352F0BB0F40F4BF2B11F460FFBE
:1014F00004C06F5F7F4F8F4F9F4F089557FD9058E7
:10150000440F551F59F05F3F71F04795880F97FBC7
:10151000991F61F09F3F79F0879508951216130681
:101520001406551FF2CF4695F1DF08C016161706B0
:101530001806991FF1CF86957105610508940895E5
:10154000E894BB2766277727CB0197F908958ADFB0
:1015500008F48FEF08950BD0C0CFB1DF28F0B6DFCD
:1015600018F0952309F0A2CFA7CF1124EACFC6DF48
:10157000A0F3959FD1F3950F50E0551F629FF001A6
:10158000729FBB27F00DB11D639FAA27F00DB11DFF
:10159000AA1F649F6627B00DA11D661F829F222788
:1015A000B00DA11D621F739FB00DA11D621F839F0F
:1015B000A00D611D221F749F3327A00D611D231FE5
:1015C000849F600D211D822F762F6A2F11249F5733
:1015D00050408AF0E1F088234AF0EE0FFF1FBB1F56
:1015E000661F771F881F91505040A9F79E3F5105F5
:1015F00070F05CCFA6CF5F3FECF3983EDCF38695AE
:1016000077956795B795F795E7959F5FC1F7FE2B9F
:10161000880F911D9695879597F90895F894FFCFB7
:00000001FF
