:100000000C942A000C9434000C9434000C943400AA
:100010000C9434000C9434000C9434000C94340090
:100020000C9434000C9434000C9434000C94340080
:100030000C9434000C9434000C9434000C94340070
:100040000C9434000C9434000C9434000C94340060
:100050000C94340011241FBECFE5D8E0DEBFCDBF25
:100060000E9470020C9474050C940000DF93CF93EF
:10007000CDB7DEB764970FB6F894DEBF0FBECDBF25
:10008000698B7A8B8B8B9C8B90C0188A1F8677C06C
:1000900080E090E0A0E2B1E48B879C87AD87BE87CB
:1000A0006B857C858D859E8520E030E04AE755E4B0
:1000B0000E941105DC01CB018F839887A987BA873D
:1000C0006F81788589859A8520E030E040E85FE39C
:1000D0000E94000488232CF481E090E09E838D83AD
:1000E0003FC06F81788589859A8520E03FEF4FE793
:1000F00057E40E940D0518164CF56B857C858D859F
:100100009E8520E030E040E251E40E941105DC01D0
:10011000CB01BC01CD010E946C04DC01CB019E83AC
:100120008D830FC080E991E09C838B838B819C81C0
:100130000197F1F79C838B838D819E8101979E832C
:100140008D838D819E81009769F714C06F817885BA
:1001500089859A850E946C04DC01CB019E838D8386
:100160008D819E819A83898389819A810197F1F794
:100170009A8389838F8598890196988B8F878F853D
:100180009889843691050CF483CF69897A898B89A3
:100190009C8920E030E040E85FE30E949B03DC01A3
:1001A000CB01898B9A8BAB8BBC8B69897A898B89C4
:1001B0009C8920E030E040E050E00E940004882369
:1001C00009F063CF64960FB6F894DEBF0FBECDBFC3
:1001D000CF91DF910895DF93CF93CDB7DEB76297CC
:1001E0000FB6F894DEBF0FBECDBF6F87788B898BBB
:1001F0009A8B82C080E090E0A0E2B1E48B879C877C
:10020000AD87BE876B857C858D859E8520E030E03F
:100210004AE755E40E941105DC01CB018F839887E2
:10022000A987BA876F81788589859A8520E030E033
:1002300040E85FE30E94000488232CF481E090E012
:100240009E838D833FC06F81788589859A8520E064
:100250003FEF4FE757E40E940D0518164CF56B85EC
:100260007C858D859E8520E030E040E251E40E944F
:100270001105DC01CB01BC01CD010E946C04DC0145
:10028000CB019E838D830FC080E991E09C838B839B
:100290008B819C810197F1F79C838B838D819E815B
:1002A00001979E838D838D819E81009769F714C08D
:1002B0006F81788589859A850E946C04DC01CB0169
:1002C0009E838D838D819E819A83898389819A8182
:1002D0000197F1F79A8389836F85788989899A894B
:1002E00020E030E040E85FE30E949B03DC01CB01AB
:1002F0008F87988BA98BBA8B6F85788989899A8922
:1003000020E030E040E050E00E940004882309F043
:1003100071CF62960FB6F894DEBF0FBECDBFCF91FE
:10032000DF910895DF93CF93CDB7DEB76A970FB60D
:10033000F894DEBF0FBECDBF9A8F898FC3C080E017
:1003400090E0A0E2B1E48D8B9E8BAF8BB88F6D896E
:100350007E898F89988D2BEA3AEA4AEA50E40E9416
:100360001105DC01CB01898B9A8BAB8BBC8B698926
:100370007A898B899C8920E030E040E85FE30E9425
:10038000000488231CF481E0888B91C069897A89F4
:100390008B899C8920E030E04FE753E40E940D05F3
:1003A00018160CF07BC06D897E898F89988D20E0AE
:1003B00030E04AE754E40E940404DC01CB018C875E
:1003C0009D87AE87BF876C857D858E859F8520E064
:1003D00030E04AE755E40E941105DC01CB01888733
:1003E0009987AA87BB87688579858A859B8520E060
:1003F00030E040E85FE30E94000488232CF481E0B1
:1004000090E09F838E833FC0688579858A859B8530
:1004100020E03FEF4FE757E40E940D0518164CF51A
:100420006C857D858E859F8520E030E040E251E43B
:100430000E941105DC01CB01BC01CD010E946C04BE
:10044000DC01CB019F838E830FC080E991E09D8307
:100450008C838C819D810197F1F79D838C838E81A4
:100460009F8101979F838E838E819F81009769F77B
:1004700024C0688579858A859B850E946C04DC018F
:10048000CB019F838E838E819F819B838A838A8108
:100490009B810197F1F79B838A830FC069897A89D1
:1004A0008B899C890E946C04DC01CB01888B888934
:1004B000898389818A95F1F78983898D9A8D01973E
:1004C0009A8F898F898D9A8D009709F038CF6A9617
:1004D0000FB6F894DEBF0FBECDBFCF91DF91089568
:1004E000DF93CF93CDB7DEB76C970FB6F894DEBF2E
:1004F0000FBECDBFE4E3F0E01082E5E3F0E08FEF64
:100500008083EAE3F0E08FEF8083EAE2F0E088E0C6
:100510008083E0E4F0E086E88083E9E2F0E08FECBD
:100520008083EBE3F0E08FEF8083EBE2F0E080810B
:10053000882F90E0807290700097B9F3ACE2B0E041
:10054000E9E3F0E080818C9380E090E0A0E8BFE3F5
:10055000898F9A8FAB8FBC8F698D7A8D8B8D9C8D97
:1005600020E030E04AE755E40E941105DC01CB01B0
:100570008D8B9E8BAF8BB88F6D897E898F89988D7F
:1005800020E030E040E85FE30E94000488232CF480
:1005900081E090E09C8B8B8B3FC06D897E898F8939
:1005A000988D20E03FEF4FE757E40E940D051816A5
:1005B0004CF5698D7A8D8B8D9C8D20E030E040E28A
:1005C00051E40E941105DC01CB01BC01CD010E9468
:1005D0006C04DC01CB019C8B8B8B0FC080E991E01C
:1005E0009A8B898B89899A890197F1F79A8B898BE4
:1005F0008B899C8901979C8B8B8B8B899C8900971D
:1006000069F714C06D897E898F89988D0E946C046A
:10061000DC01CB019C8B8B8B8B899C89988B8F8782
:100620008F8598890197F1F7988B8F87EBE3F0E03E
:100630001082EBE2F0E08081882F90E08072907071
:100640000097B9F3ACE2B0E0E9E3F0E080818C938D
:1006500080E090E0A0E8BFE38B879C87AD87BE87F2
:100660006B857C858D859E8520E030E04AE755E4EA
:100670000E941105DC01CB018F839887A987BA8777
:100680006F81788589859A8520E030E040E85FE3D6
:100690000E94000488232CF481E090E09E838D83E7
:1006A0003FC06F81788589859A8520E03FEF4FE7CD
:1006B00057E40E940D0518164CF56B857C858D85D9
:1006C0009E8520E030E040E251E40E941105DC010B
:1006D000CB01BC01CD010E946C04DC01CB019E83E7
:1006E0008D830FC080E991E09C838B838B819C81FB
:1006F0000197F1F79C838B838D819E8101979E8367
:100700008D838D819E81009769F70BCF6F817885EE
:1007100089859A850E946C04DC01CB019E838D83C0
:100720008D819E819A83898389819A810197F1F7CE
:100730009A838983F6CE5058BB27AA270ED033C19F
:1007400024D130F029D120F031F49F3F11F41EF470
:1007500019C10EF4E095E7FB0FC1E92F35D180F305
:10076000BA17620773078407950718F071F49EF5AE
:100770004DC10EF4E0950B2EBA2FA02D0B01B9013F
:1007800090010C01CA01A0011124FF27591B99F007
:10079000593F50F4503E68F11A16F040A22F232F13
:1007A000342F4427585FF3CF469537952795A79563
:1007B000F0405395C9F77EF41F16BA0B620B730B0A
:1007C000840BBAF09150A1F0FF0FBB1F661F771F7B
:1007D000881FC2F70EC0BA0F621F731F841F48F430
:1007E000879577956795B795F7959E3F08F0B3CFB6
:1007F0009395880F08F09927EE0F979587950895A0
:1008000097D008F481E008950CD0CDC0C5D040F059
:10081000BCD030F021F45F3F19F0AEC05111F7C0E9
:10082000B1C0D2D098F39923C9F35523B1F3951BE6
:10083000550BBB27AA2762177307840738F09F5F01
:100840005F4F220F331F441FAA1FA9F333D00E2E70
:100850003AF0E0E830D091505040E695001CCAF7DD
:1008600029D0FE2F27D0660F771F881FBB1F2617A2
:1008700037074807AB07B0E809F0BB0B802DBF0175
:10088000FF2793585F4F2AF09E3F510568F074C0D0
:10089000BEC05F3FECF3983EDCF386957795679595
:1008A000B795F7959F5FC9F7880F911D9695879526
:1008B00097F90895E1E0660F771F881FBB1F621745
:1008C00073078407BA0720F0621B730B840BBA0B03
:1008D000EE1F88F7E09508957FD088F09F5790F03D
:1008E000B92F9927B751A0F0D1F0660F771F881F55
:1008F000991F1AF0BA95C9F712C0B13081F086D0AD
:10090000B1E0089583C0672F782F8827B85F39F04A
:10091000B93FCCF3869577956795B395D9F73EF4B3
:1009200090958095709561957F4F8F4F9F4F08955B
:10093000990F0008550FAA0BE0E8FEEF16161706F0
:10094000E807F907C0F012161306E407F50798F058
:10095000621B730B840B950B39F40A2661F0232B71
:10096000242B252B21F408950A2609F4A140A695ED
:100970008FEF811D811D089597F99F6780E870E0D2
:1009800060E008959FEF80EC089500240A94161605
:10099000170618060906089500240A94121613066D
:1009A000140605060895092E0394000C11F48823FB
:1009B00052F0BB0F40F4BF2B11F460FF04C06F5F17
:1009C0007F4F8F4F9F4F089557FD9058440F551FED
:1009D00059F05F3F71F04795880F97FB991F61F0C1
:1009E0009F3F79F087950895121613061406551F38
:1009F000F2CF4695F1DF08C0161617061806991FA4
:100A0000F1CF86957105610508940895E894BB2798
:100A100066277727CB0197F908958ADF08F48FEFCF
:100A200008950BD0C0CFB1DF28F0B6DF18F09523C2
:100A300009F0A2CFA7CF1124EACFC6DFA0F3959F7C
:100A4000D1F3950F50E0551F629FF001729FBB27B5
:100A5000F00DB11D639FAA27F00DB11DAA1F649F61
:100A60006627B00DA11D661F829F2227B00DA11D14
:100A7000621F739FB00DA11D621F839FA00D611D9A
:100A8000221F749F3327A00D611D231F849F600DBB
:100A9000211D822F762F6A2F11249F5750408AF0F4
:100AA000E1F088234AF0EE0FFF1FBB1F661F771F80
:100AB000881F91505040A9F79E3F510570F05CCFC0
:100AC000A6CF5F3FECF3983EDCF38695779567956C
:100AD000B795F795E7959F5FC1F7FE2B880F911D9E
:0C0AE0009695879597F90895F894FFCF3C
:00000001FF
