:100000000C942A000C9434000C9434000C943400AA
:100010000C9434000C9434000C9434000C94340090
:100020000C9434000C9434000C9434000C94340080
:100030000C9434000C9434000C9434000C94340070
:100040000C9434000C9434000C9434000C94340060
:100050000C94340011241FBECFE5D8E0DEBFCDBF25
:100060000E9436000C9462000C940000DF93CF9342
:10007000CDB7DEB7E7E3F0E08FEF8083A7E3B0E032
:10008000E7E3F0E080818D7F8C93E8E3F0E081E0AE
:100090008083E6E3F0E08081882F90E082709070AA
:1000A000009741F0A8E3B0E0E8E3F0E080818460ED
:1000B0008C93EBCFA8E3B0E0E8E3F0E080818B7FA6
:0800C0008C93E3CFF894FFCF0D
:00000001FF
