:100000000C942A000C9434000C9434000C943400AA
:100010000C9434000C9434000C9434000C94340090
:100020000C9434000C9434000C9434000C94340080
:100030000C9434000C9434000C9434000C94340070
:100040000C9434000C9434000C9434000C94340060
:100050000C94340011241FBECFE5D8E0DEBFCDBF25
:100060000E9436000C94F0040C9400000F931F9330
:10007000DF93CF93CDB7DEB7C456D0400FB6F89418
:10008000DEBF0FBECDBFFE01EF59FF4F8EE190E006
:1000900091838083E1E3F0E08FEF8083EAE3F0E097
:1000A0008FEF8083E7E3F0E08FEF8083E4E3F0E01D
:1000B0008FEF8083E9E2F0E08FEC8083EAE2F0E00A
:1000C00080E18083E0E4F0E086E88083EFE4F0E024
:1000D00081EA8083EEE4F0E081E08083EBE3F0E00E
:1000E0001082EAE4F0E011821082E8E4F0E011828C
:1000F0001082FE01E15AFF4F81E090E091838083FE
:10010000FE01E55AFF4F11821082FE01E75AFF4FB0
:1001100011821082FE01E95AFF4F11821082FE0106
:10012000EB5AFF4F11821082EBE3F0E085E0808311
:10013000EAE4F0E011821082E8E4F0E0118210823B
:10014000FE01EF5AFF4F80E090E4ACE9B5E4808314
:100150009183A283B3838E01035B1F4FFE01EF5A8D
:10016000FF4F608171818281938120E030E04AE716
:1001700055E40E946504DC01CB01F8018083918382
:10018000A283B383FE01E35BFF4F608171818281B3
:10019000938120E030E040E85FE30E94E40388239D
:1001A00044F4FE01E55BFF4F81E090E091838083A2
:1001B00064C0FE01E35BFF4F6081718182819381A6
:1001C00020E03FEF4FE757E40E94610418160CF05F
:1001D00043C0FE01EF5AFF4F60817181828193819C
:1001E00020E030E040E251E40E946504DC01CB01F4
:1001F0008E01055B1F4FBC01CD010E94E803DC01AD
:10020000CB01F801918380831FC0FE01E75BFF4FA4
:1002100080E991E091838083FE01E75BFF4F80815D
:1002200091810197F1F7FE01E75BFF4F9183808396
:10023000DE01A55BBF4FFE01E55BFF4F8081918131
:10024000019711969C938E93FE01E55BFF4F808191
:1002500091810097D1F627C08E01055B1F4FFE01EB
:10026000E35BFF4F60817181828193810E94E8038B
:10027000DC01CB01F80191838083DE01A95BBF4FD4
:10028000FE01E55BFF4F808191818D939C93FE0180
:10029000E95BFF4F808191810197F1F7FE01E95BF6
:1002A000FF4F91838083EAE4F0E082E390E0918362
:1002B0008083E8E4F0E08DE290E091838083FE01AA
:1002C000ED5BFF4F80E090E4ACE9B5E4808391837F
:1002D000A283B3838E01015C1F4FFE01ED5BFF4FD4
:1002E000608171818281938120E030E04AE755E4AA
:1002F0000E946504DC01CB01F80180839183A28315
:10030000B383FE01FF96608171818281938120E039
:1003100030E040E85FE30E94E40388232CF481E0AE
:1003200090E09EAF8DAF46C0FE01FF966081718167
:100330008281938120E03FEF4FE757E40E94610400
:10034000181664F5FE01ED5BFF4F608171818281BB
:10035000938120E030E040E251E40E946504DC013A
:10036000CB01BC01CD010E94E803DC01CB019EAFB3
:100370008DAF0FC080E991E09CAF8BAF8BAD9CAD92
:100380000197F1F79CAF8BAF8DAD9EAD01979EAFFE
:100390008DAF8DAD9EAD009769F716C0FE01FF963B
:1003A00060817181828193810E94E803DC01CB012D
:1003B0009EAF8DAF8DAD9EAD9AAF89AF89AD9AAD31
:1003C0000197F1F79AAF89AFEAE4F0E08CE390E0AF
:1003D00091838083E8E4F0E08DE290E09183808374
:1003E00080E090E4ACE9B5E48DAB9EABAFABB8AFC9
:1003F0006DA97EA98FA998AD20E030E04AE755E4C9
:100400000E946504DC01CB0189AB9AABABABBCAB02
:1004100069A97AA98BA99CA920E030E040E85FE3B4
:100420000E94E40388232CF481E090E098AB8FA72E
:100430003FC069A97AA98BA99CA920E03FEF4FE7AB
:1004400057E40E94610418164CF56DA97EA98FA986
:1004500098AD20E030E040E251E40E946504DC0108
:10046000CB01BC01CD010E94E803DC01CB0198ABBC
:100470008FA70FC080E991E09EA78DA78DA59EA5AF
:100480000197F1F79EA78DA78FA598A9019798AB23
:100490008FA78FA598A9009769F714C069A97AA9B1
:1004A0008BA99CA90E94E803DC01CB0198AB8FA724
:1004B0008FA598A99CA78BA78BA59CA50197F1F761
:1004C0009CA78BA7EAE4F0E081E490E0918380832D
:1004D000E8E4F0E08DE290E09183808380E090E4B6
:1004E000ACE9B5E48FA398A7A9A7BAA76FA178A58F
:1004F00089A59AA520E030E04AE755E40E9465040A
:10050000DC01CB018BA39CA3ADA3BEA36BA17CA1FB
:100510008DA19EA120E030E040E85FE30E94E4036B
:1005200088232CF481E090E09AA389A33FC06BA1BB
:100530007CA18DA19EA120E03FEF4FE757E40E94F0
:10054000610418164CF56FA178A589A59AA520E03D
:1005500030E040E251E40E946504DC01CB01BC01C3
:10056000CD010E94E803DC01CB019AA389A30FC04F
:1005700080E991E098A38F8F8F8D98A10197F1F773
:1005800098A38F8F89A19AA101979AA389A389A182
:100590009AA1009769F714C06BA17CA18DA19EA1BF
:1005A0000E94E803DC01CB019AA389A389A19AA147
:1005B0009E8F8D8F8D8D9E8D0197F1F79E8F8D8FE4
:1005C000EAE4F0E086E490E091838083E8E4F0E000
:1005D00080E390E09183808380E090E4ACE9B5E42F
:1005E000898F9A8FAB8FBC8F698D7A8D8B8D9C8D07
:1005F00020E030E04AE755E40E946504DC01CB01CD
:100600008D8B9E8BAF8BB88F6D897E898F89988DEE
:1006100020E030E040E85FE30E94E40388232CF40C
:1006200081E090E09C8B8B8B3FC06D897E898F89A8
:10063000988D20E03FEF4FE757E40E9461041816C1
:100640004CF5698D7A8D8B8D9C8D20E030E040E2F9
:1006500051E40E946504DC01CB01BC01CD010E9484
:10066000E803DC01CB019C8B8B8B0FC080E991E010
:100670009A8B898B89899A890197F1F79A8B898B53
:100680008B899C8901979C8B8B8B8B899C8900978C
:1006900069F714C06D897E898F89988D0E94E8035F
:1006A000DC01CB019C8B8B8B8B899C89988B8F87F2
:1006B0008F8598890197F1F7988B8F87EAE4F0E0AE
:1006C00011821082E8E4F0E01182108280E090E470
:1006D000ACE9B5E48B879C87AD87BE876B857C854D
:1006E0008D859E8520E030E04AE755E40E94650450
:1006F000DC01CB018F839887A987BA876F817885C2
:1007000089859A8520E030E040E85FE30E94E403B9
:1007100088232CF481E090E09E838D833FC06F811D
:10072000788589859A8520E03FEF4FE757E40E945E
:10073000610418164CF56B857C858D859E8520E0BF
:1007400030E040E251E40E946504DC01CB01BC01D1
:10075000CD010E94E803DC01CB019E838D830FC095
:1007600080E991E09C838B838B819C810197F1F7D9
:100770009C838B838D819E8101979E838D838D8148
:100780009E81009769F714C06F81788589859A8565
:100790000E94E803DC01CB019E838D838D819E81C5
:1007A0009A83898389819A810197F1F79A83898352
:1007B000CC59DF4F0FB6F894DEBF0FBECDBFCF913F
:1007C000DF911F910F9108952FD008F481E00895D3
:1007D00057D088F09F5790F0B92F9927B751A0F0C4
:1007E000D1F0660F771F881F991F1AF0BA95C9F7C5
:1007F00012C0B13081F05ED0B1E008955BC0672FC8
:10080000782F8827B85F39F0B93FCCF38695779574
:100810006795B395D9F73EF490958095709561955D
:100820007F4F8F4F9F4F0895990F0008550FAA0BC8
:10083000E0E8FEEF16161706E807F907C0F01216F3
:100840001306E407F50798F0621B730B840B950BF6
:1008500039F40A2661F0232B242B252B21F408954B
:100860000A2609F4A140A6958FEF811D811D0895E8
:1008700057FD9058440F551F59F05F3F71F0479551
:10088000880F97FB991F61F09F3F79F08795089536
:10089000121613061406551FF2CF4695F1DF08C055
:1008A000161617061806991FF1CF86957105610572
:1008B00008940895E894BB2766277727CB0197F91A
:1008C0000895B2DF08F48FEF08950BD078C069D097
:1008D00028F06ED018F0952309F05AC05FC011249B
:1008E000EACFC6DFA0F3959FD1F3950F50E0551FD7
:1008F000629FF001729FBB27F00DB11D639FAA2775
:10090000F00DB11DAA1F649F6627B00DA11D661FC3
:10091000829F2227B00DA11D621F739FB00DA11DE4
:10092000621F839FA00D611D221F749F3327A00D9E
:10093000611D231F849F600D211D822F762F6A2F3A
:1009400011249F5750408AF0E1F088234AF0EE0FBF
:10095000FF1FBB1F661F771F881F91505040A9F7CC
:100960009E3F510570F014C0A6CF5F3FECF3983E58
:10097000DCF3869577956795B795F795E7959F5F33
:10098000C1F7FE2B880F911D9695879597F90895CD
:1009900097F99F6780E870E060E008959FEF80EC32
:1009A000089500240A9416161706180609060895D5
:1009B00000240A9412161306140605060895092E3B
:1009C0000394000C11F4882352F0BB0F40F4BF2BAA
:1009D00011F460FF04C06F5F7F4F8F4F9F4F0895EA
:0409E000F894FFCFB9
:00000001FF
