:100000000C942A000C9434000C9434000C943400AA
:100010000C9434000C9434000C9434000C94340090
:100020000C9434000C9434000C9434000C94340080
:100030000C9434000C9434000C9434000C94340070
:100040000C9434000C9434000C9434000C94340060
:100050000C94340011241FBECFE5D8E0DEBFCDBF25
:100060000E9436000C9457000C940000DF93CF934D
:10007000CDB7DEB7E7E3F0E085E08083E8E3F0E0CA
:100080001082E8E3F0E081E08083E6E3F0E0808145
:10009000882F90E082709070009729F0E8E3F0E0FC
:1000A00084E08083EECFE8E3F0E01082EACFF894BA
:0200B000FFCF80
:00000001FF
