:100000000C942A000C9434000C9434000C943400AA
:100010000C9434000C9434000C9434000C94340090
:100020000C9434000C9434000C9434000C94340080
:100030000C9434000C9434000C9434000C94340070
:100040000C9434000C9434000C9434000C94340060
:100050000C94340011241FBECFE5D8E0DEBFCDBF25
:100060000E9436000C945B000C940000DF93CF9349
:10007000CDB7DEB7E7E3F0E08FED8083E8E3F0E0B3
:1000800080E48083E6E3F0E08081882F90E0807256
:100090009070009741F0A8E3B0E0E8E3F0E08081E1
:1000A00081608C93EBCFA8E3B0E0E8E3F0E08081DF
:0A00B0008E7F8C93E3CFF894FFCF0E
:00000001FF
