:100000000C942A000C9434000C9434000C943400AA
:100010000C9434000C9434000C9434000C94340090
:100020000C9434000C9434000C9434000C94340080
:100030000C9434000C9434000C9434000C94340070
:100040000C9434000C9434000C9434000C94340060
:100050000C94340011241FBECFE5D8E0DEBFCDBF25
:100060000E9436000C944E070C9400000F931F93CF
:10007000DF93CF93CDB7DEB7C055D0400FB6F8941D
:10008000DEBF0FBECDBFFE01E35BFF4F8EE190E010
:1000900091838083E1E3F0E08FEF8083EAE3F0E097
:1000A0008FEF8083E7E3F0E08FEF8083E4E3F0E01D
:1000B0008FEF8083E9E2F0E08FEC8083EAE2F0E00A
:1000C00080E18083E0E4F0E086E88083EFE4F0E024
:1000D00081EA8083EEE4F0E081E08083EBE3F0E00E
:1000E0001082EAE4F0E011821082E8E4F0E011828C
:1000F0001082FE01E55BFF4F81E090E091838083F9
:10010000EBE2F0E080818823DCF7A5E3B0E0ECE2ED
:10011000F0E080818C93E3E3F0E08081813081F72F
:10012000EBE2F0E080818823DCF7A5E3B0E0ECE2CD
:10013000F0E080818C93FE01EB5BFF4F80E090E06C
:10014000A0E8BFE380839183A283B3838E010F5B1A
:100150001F4FFE01EB5BFF4F6081718182819381B4
:100160002BEA3AEA4AEA50E40E94C406DC01CB01D9
:10017000F80180839183A283B383FE01EF5BFF4F7D
:10018000608171818281938120E030E040E85FE30B
:100190000E94B305882334F481E0FE01E05CFF4F48
:1001A00080839DC0FE01EF5BFF4F60817181828182
:1001B000938120E030E04FE753E40E94C006181618
:1001C0000CF07EC0FE01EB5BFF4F6081718182818C
:1001D000938120E030E04AE754E40E94B705DC0157
:1001E000CB018CAF9DAFAEAFBFAF6CAD7DAD8EAD73
:1001F0009FAD20E030E04AE755E40E94C406DC01F0
:10020000CB0188AF99AFAAAFBBAF68AD79AD8AAD6E
:100210009BAD20E030E040E85FE30E94B305882317
:100220002CF481E090E09FAB8EAB3FC068AD79AD20
:100230008AAD9BAD20E03FEF4FE757E40E94C00638
:1002400018164CF56CAD7DAD8EAD9FAD20E030E065
:1002500040E251E40E94C406DC01CB01BC01CD01A7
:100260000E941F06DC01CB019FAB8EAB0FC080E963
:1002700091E09DAB8CAB8CA99DA90197F1F79DAB4B
:100280008CAB8EA99FA901979FAB8EAB8EA99FA91E
:10029000009769F72DC068AD79AD8AAD9BAD0E941E
:1002A0001F06DC01CB019FAB8EAB8EA99FA99BAB38
:1002B0008AAB8AA99BA90197F1F79BAB8AAB18C0BF
:1002C000FE01EF5BFF4F60817181828193810E940B
:1002D0001F06DC01CB01FE01E05CFF4F8083FE01C5
:1002E000E05CFF4F808189AB89A98A95F1F789ABE2
:1002F000EBE2F0E080818823DCF7A8E3B0E0ECE2F9
:10030000F0E080818C9380E090E0A0E8BFE38DA7CF
:100310009EA7AFA7B8AB6DA57EA58FA598A92BEA20
:100320003AEA4AEA50E40E94C406DC01CB0189A7FC
:100330009AA7ABA7BCA769A57AA58BA59CA520E029
:1003400030E040E85FE30E94B30588231CF481E0BD
:1003500088A791C069A57AA58BA59CA520E030E06F
:100360004FE753E40E94C00618160CF07BC06DA541
:100370007EA58FA598A920E030E04AE754E40E94CA
:10038000B705DC01CB018CA39DA3AEA3BFA36CA1D9
:100390007DA18EA19FA120E030E04AE755E40E94B4
:1003A000C406DC01CB0188A399A3AAA3BBA368A1BF
:1003B00079A18AA19BA120E030E040E85FE30E94A0
:1003C000B30588232CF481E090E09F8F8E8F3FC08F
:1003D00068A179A18AA19BA120E03FEF4FE757E4F4
:1003E0000E94C00618164CF56CA17DA18EA19FA19C
:1003F00020E030E040E251E40E94C406DC01CB0181
:10040000BC01CD010E941F06DC01CB019F8F8E8FA6
:100410000FC080E991E09D8F8C8F8C8D9D8D019711
:10042000F1F79D8F8C8F8E8D9F8D01979F8F8E8F73
:100430008E8D9F8D009769F724C068A179A18AA14C
:100440009BA10E941F06DC01CB019F8F8E8F8E8D9A
:100450009F8D9B8F8A8F8A8D9B8D0197F1F79B8F44
:100460008A8F0FC069A57AA58BA59CA50E941F063F
:10047000DC01CB0188A788A5898F898D8A95F1F742
:10048000898FEBE2F0E080818823DCF7ECE2F0E09A
:100490008081FE01E15BFF4F882F90E09183808394
:1004A00080E090E0A0E8BFE38D8B9E8BAF8BB88F90
:1004B0006D897E898F89988D2BEA3AEA4AEA50E461
:1004C0000E94C406DC01CB01898B9A8BAB8BBC8B61
:1004D00069897A898B899C8920E030E040E85FE374
:1004E0000E94B30588231CF481E0888B91C0698940
:1004F0007A898B899C8920E030E04FE753E40E94A1
:10050000C00618160CF07BC06D897E898F89988D86
:1005100020E030E04AE754E40E94B705DC01CB015B
:100520008C879D87AE87BF876C857D858E859F85EF
:1005300020E030E04AE755E40E94C406DC01CB012C
:1005400088879987AA87BB87688579858A859B85EF
:1005500020E030E040E85FE30E94B30588232CF4FC
:1005600081E090E09F838E833FC0688579858A858E
:100570009B8520E03FEF4FE757E40E94C006181626
:100580004CF56C857D858E859F8520E030E040E2CE
:1005900051E40E94C406DC01CB01BC01CD010E94E4
:1005A0001F06DC01CB019F838E830FC080E991E0A1
:1005B0009D838C838C819D810197F1F79D838C8332
:1005C0008E819F8101979F838E838E819F8100976B
:1005D00069F724C0688579858A859B850E941F06F6
:1005E000DC01CB019F838E838E819F819B838A83D5
:1005F0008A819B810197F1F79B838A830FC0698968
:100600007A898B899C890E941F06DC01CB01888B2B
:100610008889898389818A95F1F78983EAE4F0E002
:1006200085E090E091838083E8E4F0E085E090E06D
:1006300091838083DE01A75BBF4FFE01E15BFF4F2B
:100640008081918111969C938E93FE01E15BFF4F17
:10065000808191818F379105D4F5EBE3F0E085E05F
:1006600080830AE410E0FE01E75BFF4F2FE730E0F4
:1006700080819181A901481B590BCA01880F991FDC
:10068000FE01E55BFF4F20813181B9010E94270700
:10069000CB01F8019183808308E410E0FE01E75B61
:1006A000FF4F2FE730E080819181A901481B590B52
:1006B000CA01880F991FFE01E55BFF4F2081318140
:1006C000B9010E942707CB01F80191838083FE01C5
:1006D000E15BFF4F808191818F3791050CF03EC027
:1006E000E6E3F0E080818823C9F5EBE3F0E085E004
:1006F00080830AE410E0FE01E75BFF4F2FE730E064
:1007000080819181A901481B590BCA01880F991F4B
:10071000FE01E55BFF4F20813181B9010E9427076F
:10072000CB01F8019183808308E410E0FE01E75BD0
:10073000FF4F2FE730E080819181A901481B590BC1
:10074000CA01FE01E55BFF4F20813181B9010E94A2
:100750002707CB01F80191838083FAC0FE01E15B9A
:10076000FF4F80819181803891050CF03EC0E6E317
:10077000F0E080818F3FC9F5EBE3F0E085E0808316
:100780000AE410E0FE01E75BFF4F2FE730E08081D5
:100790009181A901481B590BCA01FE01E55BFF4F7E
:1007A00020813181B9010E942707CB01F801918393
:1007B000808308E410E0FE01E75BFF4F2FE730E0A5
:1007C00080819181A901481B590BCA01880F991F8B
:1007D000FE01E55BFF4F20813181B9010E942707AF
:1007E000CB01F80191838083B3C0FE01E15BFF4F31
:1007F0008081918180389105ACF1E6E3F0E0808161
:100800008F3F81F5EBE3F0E010820AE410E0FE0197
:10081000E75BFF4F8081918180589040FE01E55B4E
:10082000FF4F20813181B9010E942707CB01F801D8
:100830009183808308E410E0FE01E75BFF4F808135
:10084000918180589040880F991FFE01E55BFF4F12
:1008500020813181B9010E942707CB01F8019183E2
:10086000808376C0FE01E15BFF4F808191818038FB
:100870009105ACF1E6E3F0E08081882381F5EBE3BC
:10088000F0E010820AE410E0FE01E75BFF4F808198
:10089000918180589040880F991FFE01E55BFF4FC2
:1008A00020813181B9010E942707CB01F801918392
:1008B000808308E410E0FE01E75BFF4F80819181B7
:1008C00080589040FE01E55BFF4F20813181B901E6
:1008D0000E942707CB01F8019183808339C0FE0174
:1008E000E15BFF4F80819181803891058CF1EBE3D2
:1008F000F0E010820AE410E0FE01E75BFF4F808128
:10090000918180589040880F991FFE01E55BFF4F51
:1009100020813181B9010E942707CB01F801918321
:10092000808308E410E0FE01E75BFF4F8081918146
:1009300080589040880F991FFE01E55BFF4F208192
:100940003181B9010E942707CB01F801918380838F
:10095000E3E3F0E08081882F90E081709070009751
:1009600019F5FE01E55BFF4F808191818130910592
:10097000D9F4DE01A55BBF4FFE01E55BFF4F80812F
:100980009181019611969C938E93FE01E55BFF4F3A
:10099000808191818330910539F4FE01E55BFF4F41
:1009A00082E090E091838083E3E3F0E08081882F10
:1009B00090E081709070009719F5FE01E55BFF4FA4
:1009C0008081918182309105D9F4DE01A55BBF4F12
:1009D000FE01E55BFF4F80819181019611969C930A
:1009E0008E93FE01E55BFF4F8081918184309105FC
:1009F00039F4FE01E55BFF4F83E090E09183808353
:100A0000E3E3F0E08081882F90E0817090700097A0
:100A100019F5FE01E55BFF4F8081918183309105DF
:100A2000D9F4DE01A55BBF4FFE01E55BFF4F80817E
:100A30009181019611969C938E93FE01E55BFF4F89
:100A4000808191818530910539F4FE01E55BFF4F8E
:100A500084E090E091838083E3E3F0E08081882F5D
:100A600090E082709070009711F5FE01E55BFF4FFA
:100A70008081918182309105D1F4DE01A55BBF4F69
:100A8000FE01E55BFF4F80819181019711969C9358
:100A90008E93FE01E55BFF4F80819181009739F4D1
:100AA000FE01E55BFF4F81E090E091838083E3E30B
:100AB000F0E08081882F90E082709070009719F5A7
:100AC000FE01E55BFF4F8081918183309105D9F470
:100AD000DE01A55BBF4FFE01E55BFF4F8081918189
:100AE000019711969C938E93FE01E55BFF4F8081E9
:100AF00091818130910539F4FE01E55BFF4F82E081
:100B000090E091838083E3E3F0E08081882F90E0A0
:100B100082709070009709F0F3CAFE01E55BFF4F09
:100B2000808191818430910509F0EACADE01A55BDC
:100B3000BF4FFE01E55BFF4F8081918101971196C8
:100B40009C938E93FE01E55BFF4F80819181823003
:100B5000910509F0D5CAFE01E55BFF4F83E090E007
:100B600091838083CDCA97D008F481E008950CD09A
:100B7000CDC0C5D040F0BCD030F021F45F3F19F0BB
:100B8000AEC05111F7C0B1C0D2D098F39923C9F3C8
:100B90005523B1F3951B550BBB27AA276217730783
:100BA000840738F09F5F5F4F220F331F441FAA1F37
:100BB000A9F333D00E2E3AF0E0E830D091505040F7
:100BC000E695001CCAF729D0FE2F27D0660F771FA5
:100BD000881FBB1F261737074807AB07B0E809F087
:100BE000BB0B802DBF01FF2793585F4F2AF09E3F1C
:100BF000510568F074C0BEC05F3FECF3983EDCF373
:100C0000869577956795B795F7959F5FC9F7880F94
:100C1000911D9695879597F90895E1E0660F771FE6
:100C2000881FBB1F621773078407BA0720F0621B77
:100C3000730B840BBA0BEE1F88F7E09508957FD0F5
:100C400088F09F5790F0B92F9927B751A0F0D1F0B5
:100C5000660F771F881F991F1AF0BA95C9F712C03F
:100C6000B13081F086D0B1E0089583C0672F782F2E
:100C70008827B85F39F0B93FCCF3869577956795AB
:100C8000B395D9F73EF490958095709561957F4F17
:100C90008F4F9F4F0895990F0008550FAA0BE0E85A
:100CA000FEEF16161706E807F907C0F0121613062E
:100CB000E407F50798F0621B730B840B950B39F46E
:100CC0000A2661F0232B242B252B21F408950A26D4
:100CD00009F4A140A6958FEF811D811D089597F914
:100CE0009F6780E870E060E008959FEF80EC0895D2
:100CF00000240A94161617061806090608950024FB
:100D00000A9412161306140605060895092E039474
:100D1000000C11F4882352F0BB0F40F4BF2B11F4E8
:100D200060FF04C06F5F7F4F8F4F9F4F089557FD47
:100D30009058440F551F59F05F3F71F04795880F49
:100D400097FB991F61F09F3F79F0879508951216E0
:100D500013061406551FF2CF4695F1DF08C016168C
:100D600017061806991FF1CF86957105610508943D
:100D70000895E894BB2766277727CB0197F9089554
:100D80008ADF08F48FEF08950BD0C0CFB1DF28F0D1
:100D9000B6DF18F0952309F0A2CFA7CF1124EACF30
:100DA000C6DFA0F3959FD1F3950F50E0551F629FCA
:100DB000F001729FBB27F00DB11D639FAA27F00DB4
:100DC000B11DAA1F649F6627B00DA11D661F829FDB
:100DD0002227B00DA11D621F739FB00DA11D621FC0
:100DE000839FA00D611D221F749F3327A00D611DDD
:100DF000231F849F600D211D822F762F6A2F1124BF
:100E00009F5750408AF0E1F088234AF0EE0FFF1F11
:100E1000BB1F661F771F881F91505040A9F79E3F48
:100E2000510570F05CCFA6CF5F3FECF3983EDCF34A
:100E3000869577956795B795F795E7959F5FC1F785
:100E4000FE2B880F911D9695879597F9089597FB2E
:100E5000092E07260AD077FD04D00CD006D000203A
:100E60001AF4709561957F4F0895F6F790958195E6
:100E70009F4F0895AA1BBB1B51E107C0AA1FBB1FB0
:100E8000A617B70710F0A61BB70B881F991F5A9516
:100E9000A9F780959095BC01CD010895F894FFCFF6
:00000001FF
