:100000000C942A000C9434000C9434000C943400AA
:100010000C9434000C9434000C9434000C94340090
:100020000C9434000C9434000C9434000C94340080
:100030000C9434000C9434000C9434000C94340070
:100040000C9434000C9434000C9434000C94340060
:100050000C94340011241FBECFE5D8E0DEBFCDBF25
:100060000E9436000C944C000C940000DF93CF9358
:10007000CDB7DEB7E7E3F0E080EB8083EDE2F0E0C0
:1000800081E58083EFE2F0E08AEA8083EEE2F0E04F
:0C00900080818823DCF7F6CFF894FFCFC6
:00000001FF
