:100000000C942A000C9434000C9434000C943400AA
:100010000C9434000C9434000C9434000C94340090
:100020000C9434000C9434000C9434000C94340080
:100030000C9434000C9434000C9434000C94340070
:100040000C9434000C9434000C9434000C94340060
:100050000C94340011241FBECFE5D8E0DEBFCDBF25
:100060000E9436000C9452000C940000DF93CF9352
:10007000CDB7DEB7E7E3F0E080E48083EAE3F0E0C9
:100080008FEF8083EDE2F0E080E48083EEE2F0E049
:1000900080818823DCF7EBE3F0E0AFE2B0E08C9105
:0800A0008083F9CFF894FFCF33
:00000001FF
